{"contracts/C151/CoordinationMIC.sol":{"CoordinationMIC":{"abi":[{"inputs":[{"internalType":"address","name":"initialOwner","type":"address"}],"stateMutability":"nonpayable","type":"constructor"},{"inputs":[{"internalType":"address","name":"spender","type":"address"},{"internalType":"uint256","name":"allowance","type":"uint256"},{"internalType":"uint256","name":"needed","type":"uint256"}],"name":"ERC20InsufficientAllowance","type":"error"},{"inputs":[{"internalType":"address","name":"sender","type":"address"},{"internalType":"uint256","name":"balance","type":"uint256"},{"internalType":"uint256","name":"needed","type":"uint256"}],"name":"ERC20InsufficientBalance","type":"error"},{"inputs":[{"internalType":"address","name":"approver","type":"address"}],"name":"ERC20InvalidApprover","type":"error"},{"inputs":[{"internalType":"address","name":"receiver","type":"address"}],"name":"ERC20InvalidReceiver","type":"error"},{"inputs":[{"internalType":"address","name":"sender","type":"address"}],"name":"ERC20InvalidSender","type":"error"},{"inputs":[{"internalType":"address","name":"spender","type":"address"}],"name":"ERC20InvalidSpender","type":"error"},{"inputs":[{"internalType":"address","name":"owner","type":"address"}],"name":"OwnableInvalidOwner","type":"error"},{"inputs":[{"internalType":"address","name":"account","type":"address"}],"name":"OwnableUnauthorizedAccount","type":"error"},{"anonymous":false,"inputs":[{"indexed":true,"internalType":"address","name":"owner","type":"address"},{"indexed":true,"internalType":"address","name":"spender","type":"address"},{"indexed":false,"internalType":"uint256","name":"value","type":"uint256"}],"name":"Approval","type":"event"},{"anonymous":false,"inputs":[{"indexed":true,"internalType":"string","name":"sentinelId","type":"string"},{"indexed":false,"internalType":"uint256","name":"score","type":"uint256"},{"indexed":false,"internalType":"uint256","name":"reward","type":"uint256"},{"indexed":false,"internalType":"string","name":"cathedral","type":"string"},{"indexed":false,"internalType":"uint256","name":"timestamp","type":"uint256"}],"name":"AttestationSubmitted","type":"event"},{"anonymous":false,"inputs":[{"indexed":true,"internalType":"address","name":"attester","type":"address"},{"indexed":false,"internalType":"bool","name":"authorized","type":"bool"}],"name":"AttesterAuthorized","type":"event"},{"anonymous":false,"inputs":[{"indexed":true,"internalType":"string","name":"cathedral","type":"string"},{"indexed":false,"internalType":"uint256","name":"multiplier","type":"uint256"},{"indexed":false,"internalType":"bool","name":"active","type":"bool"}],"name":"CathedralConfigured","type":"event"},{"anonymous":false,"inputs":[{"indexed":false,"internalType":"string","name":"oldCycle","type":"string"},{"indexed":false,"internalType":"string","name":"newCycle","type":"string"}],"name":"CycleUpdated","type":"event"},{"anonymous":false,"inputs":[{"indexed":true,"internalType":"address","name":"previousOwner","type":"address"},{"indexed":true,"internalType":"address","name":"newOwner","type":"address"}],"name":"OwnershipTransferred","type":"event"},{"anonymous":false,"inputs":[{"indexed":true,"internalType":"string","name":"sentinelId","type":"string"},{"indexed":true,"internalType":"string","name":"cathedral","type":"string"}],"name":"SentinelAssigned","type":"event"},{"anonymous":false,"inputs":[{"indexed":true,"internalType":"address","name":"from","type":"address"},{"indexed":true,"internalType":"address","name":"to","type":"address"},{"indexed":false,"internalType":"uint256","name":"value","type":"uint256"}],"name":"Transfer","type":"event"},{"inputs":[],"name":"K","outputs":[{"internalType":"int256","name":"","type":"int256"}],"stateMutability":"view","type":"function"},{"inputs":[],"name":"L","outputs":[{"internalType":"uint256","name":"","type":"uint256"}],"stateMutability":"view","type":"function"},{"inputs":[],"name":"MAX_SCORE","outputs":[{"internalType":"uint256","name":"","type":"uint256"}],"stateMutability":"view","type":"function"},{"inputs":[],"name":"MIN_SCORE","outputs":[{"internalType":"uint256","name":"","type":"uint256"}],"stateMutability":"view","type":"function"},{"inputs":[],"name":"X0","outputs":[{"internalType":"int256","name":"","type":"int256"}],"stateMutability":"view","type":"function"},{"inputs":[{"internalType":"address","name":"owner","type":"address"},{"internalType":"address","name":"spender","type":"address"}],"name":"allowance","outputs":[{"internalType":"uint256","name":"","type":"uint256"}],"stateMutability":"view","type":"function"},{"inputs":[{"internalType":"address","name":"spender","type":"address"},{"internalType":"uint256","name":"value","type":"uint256"}],"name":"approve","outputs":[{"internalType":"bool","name":"","type":"bool"}],"stateMutability":"nonpayable","type":"function"},{"inputs":[{"internalType":"string","name":"sentinelId","type":"string"},{"internalType":"string","name":"cathedral","type":"string"}],"name":"assignSentinel","outputs":[],"stateMutability":"nonpayable","type":"function"},{"inputs":[{"internalType":"string","name":"sentinelId","type":"string"},{"internalType":"uint256","name":"coordinationScore","type":"uint256"}],"name":"attest","outputs":[{"internalType":"uint256","name":"reward","type":"uint256"}],"stateMutability":"nonpayable","type":"function"},{"inputs":[{"internalType":"string","name":"","type":"string"}],"name":"attestations","outputs":[{"internalType":"uint256","name":"score","type":"uint256"},{"internalType":"uint256","name":"timestamp","type":"uint256"},{"internalType":"string","name":"cathedral","type":"string"},{"internalType":"uint256","name":"reward","type":"uint256"}],"stateMutability":"view","type":"function"},{"inputs":[{"internalType":"address","name":"","type":"address"}],"name":"authorizedAttesters","outputs":[{"internalType":"bool","name":"","type":"bool"}],"stateMutability":"view","type":"function"},{"inputs":[{"internalType":"address","name":"account","type":"address"}],"name":"balanceOf","outputs":[{"internalType":"uint256","name":"","type":"uint256"}],"stateMutability":"view","type":"function"},{"inputs":[{"internalType":"string","name":"","type":"string"}],"name":"cathedrals","outputs":[{"internalType":"uint256","name":"multiplier","type":"uint256"},{"internalType":"bool","name":"active","type":"bool"}],"stateMutability":"view","type":"function"},{"inputs":[{"internalType":"string","name":"cathedral","type":"string"},{"internalType":"uint256","name":"multiplier","type":"uint256"},{"internalType":"bool","name":"active","type":"bool"}],"name":"configureCathedral","outputs":[],"stateMutability":"nonpayable","type":"function"},{"inputs":[],"name":"currentCycle","outputs":[{"internalType":"string","name":"","type":"string"}],"stateMutability":"view","type":"function"},{"inputs":[],"name":"decimals","outputs":[{"internalType":"uint8","name":"","type":"uint8"}],"stateMutability":"view","type":"function"},{"inputs":[{"internalType":"string","name":"sentinelId","type":"string"}],"name":"getAttestation","outputs":[{"components":[{"internalType":"uint256","name":"score","type":"uint256"},{"internalType":"uint256","name":"timestamp","type":"uint256"},{"internalType":"string","name":"cathedral","type":"string"},{"internalType":"uint256","name":"reward","type":"uint256"}],"internalType":"struct CoordinationMIC.SentinelAttestation","name":"","type":"tuple"}],"stateMutability":"view","type":"function"},{"inputs":[{"internalType":"string","name":"cathedral","type":"string"}],"name":"getCathedralMultiplier","outputs":[{"internalType":"uint256","name":"","type":"uint256"}],"stateMutability":"view","type":"function"},{"inputs":[{"internalType":"string","name":"sentinelId","type":"string"}],"name":"getSentinelCathedral","outputs":[{"internalType":"string","name":"","type":"string"}],"stateMutability":"view","type":"function"},{"inputs":[],"name":"name","outputs":[{"internalType":"string","name":"","type":"string"}],"stateMutability":"view","type":"function"},{"inputs":[],"name":"owner","outputs":[{"internalType":"address","name":"","type":"address"}],"stateMutability":"view","type":"function"},{"inputs":[{"internalType":"string","name":"sentinelId","type":"string"},{"internalType":"uint256","name":"coordinationScore","type":"uint256"}],"name":"previewReward","outputs":[{"internalType":"uint256","name":"reward","type":"uint256"}],"stateMutability":"view","type":"function"},{"inputs":[],"name":"renounceOwnership","outputs":[],"stateMutability":"nonpayable","type":"function"},{"inputs":[{"internalType":"string","name":"","type":"string"}],"name":"sentinelCathedrals","outputs":[{"internalType":"string","name":"","type":"string"}],"stateMutability":"view","type":"function"},{"inputs":[{"internalType":"address","name":"attester","type":"address"},{"internalType":"bool","name":"authorized","type":"bool"}],"name":"setAttester","outputs":[],"stateMutability":"nonpayable","type":"function"},{"inputs":[],"name":"symbol","outputs":[{"internalType":"string","name":"","type":"string"}],"stateMutability":"view","type":"function"},{"inputs":[],"name":"totalAttestations","outputs":[{"internalType":"uint256","name":"","type":"uint256"}],"stateMutability":"view","type":"function"},{"inputs":[],"name":"totalSupply","outputs":[{"internalType":"uint256","name":"","type":"uint256"}],"stateMutability":"view","type":"function"},{"inputs":[{"internalType":"address","name":"to","type":"address"},{"internalType":"uint256","name":"value","type":"uint256"}],"name":"transfer","outputs":[{"internalType":"bool","name":"","type":"bool"}],"stateMutability":"nonpayable","type":"function"},{"inputs":[{"internalType":"address","name":"from","type":"address"},{"internalType":"address","name":"to","type":"address"},{"internalType":"uint256","name":"value","type":"uint256"}],"name":"transferFrom","outputs":[{"internalType":"bool","name":"","type":"bool"}],"stateMutability":"nonpayable","type":"function"},{"inputs":[{"internalType":"address","name":"newOwner","type":"address"}],"name":"transferOwnership","outputs":[],"stateMutability":"nonpayable","type":"function"},{"inputs":[{"internalType":"string","name":"newCycle","type":"string"}],"name":"updateCycle","outputs":[],"stateMutability":"nonpayable","type":"function"}],"evm":{"bytecode":{"linkReferences":{},"object":"60806040523480156200001157600080fd5b5060405162002642380380620026428339810160408190526200003491620007b0565b806040518060400160405280601a81526020017f4d6f6269757320496e74656c6c6967656e636520437265646974000000000000815250604051806040016040528060038152602001624d494360e81b815250816003908162000098919062000889565b506004620000a7828262000889565b5050506001600160a01b038116620000da57604051631e4fbdf760e01b8152600060048201526024015b60405180910390fd5b620000e5816200057f565b50604080518082019091526005815264432d31353160d81b6020820152600b9062000111908262000889565b5060408051808201909152600f81526e464f522d474f5645524e4d454e545360881b60208201526200014e90671bc16d674ec800006001620005d1565b60408051808201909152600e81526d464f522d45434f4e4f4d4953545360901b602082015262000189906714d1120d7b1600006001620005d1565b60408051808201909152600d81526c464f522d41434144454d49435360981b6020820152620001c3906710a741a4627800006001620005d1565b60408051808201909152601081526f464f522d5048494c4f534f504845525360801b60208201526200020090670de0b6b3a76400006001620005d1565b620002566040518060400160405280600581526020016441544c415360d81b8152506040518060400160405280600f81526020016e464f522d474f5645524e4d454e545360881b8152506200072460201b60201c565b620002ab60405180604001604052806005815260200164415552454160d81b8152506040518060400160405280600e81526020016d464f522d45434f4e4f4d4953545360901b8152506200072460201b60201c565b620002fe604051806040016040528060048152602001634543484f60e01b8152506040518060400160405280600d81526020016c464f522d41434144454d49435360981b8152506200072460201b60201c565b620003536040518060400160405280600381526020016245564560e81b8152506040518060400160405280601081526020016f464f522d5048494c4f534f504845525360801b8152506200072460201b60201c565b620003aa604051806040016040528060068152602001654845524d455360d01b8152506040518060400160405280600f81526020016e464f522d474f5645524e4d454e545360881b8152506200072460201b60201c565b62000400604051806040016040528060048152602001634a41444560e01b8152506040518060400160405280601081526020016f464f522d5048494c4f534f504845525360801b8152506200072460201b60201c565b6200045460405180604001604052806005815260200164155492515360da1b8152506040518060400160405280600d81526020016c464f522d41434144454d49435360981b8152506200072460201b60201c565b620004a9604051806040016040528060048152602001635a45555360e01b8152506040518060400160405280600f81526020016e464f522d474f5645524e4d454e545360881b8152506200072460201b60201c565b620004ff604051806040016040528060068152602001650b48a9c92a8960d31b8152506040518060400160405280600e81526020016d464f522d45434f4e4f4d4953545360901b8152506200072460201b60201c565b620005576040518060400160405280600881526020016744414544414c555360c01b8152506040518060400160405280600e81526020016d464f522d45434f4e4f4d4953545360901b8152506200072460201b60201c565b6001600160a01b03166000908152600960205260409020805460ff1916600117905562000986565b600580546001600160a01b038381166001600160a01b0319831681179093556040519116919082907f8be0079c531659141344cd1fd0a4f28419497f9722a3daafe3b4186f6b6457e090600090a35050565b6706f05b59d3b20000821015620006205760405162461bcd60e51b81526020600482015260126024820152714d756c7469706c69657220746f6f206c6f7760701b6044820152606401620000d1565b674563918244f400008211156200067a5760405162461bcd60e51b815260206004820152601360248201527f4d756c7469706c69657220746f6f2068696768000000000000000000000000006044820152606401620000d1565b6040518060400160405280838152602001821515815250600784604051620006a3919062000955565b908152604051602091819003820181208351815592909101516001909201805460ff191692151592909217909155620006de90849062000955565b604080519182900382208483528315156020840152917fa8b5a8ed6a560cb1e31657e5731728b3b3fe41a0a528c70e847939734c4df540910160405180910390a2505050565b8060088360405162000737919062000955565b9081526020016040518091039020908162000753919062000889565b508060405162000764919062000955565b6040518091039020826040516200077c919062000955565b604051908190038120907fa64cb0e2bf835e873427d2430f7c485baf053cdaf5b601db9989fbc3342a3afe90600090a35050565b600060208284031215620007c357600080fd5b81516001600160a01b0381168114620007db57600080fd5b9392505050565b634e487b7160e01b600052604160045260246000fd5b600181811c908216806200080d57607f821691505b6020821081036200082e57634e487b7160e01b600052602260045260246000fd5b50919050565b601f82111562000884576000816000526020600020601f850160051c810160208610156200085f5750805b601f850160051c820191505b8181101562000880578281556001016200086b565b5050505b505050565b81516001600160401b03811115620008a557620008a5620007e2565b620008bd81620008b68454620007f8565b8462000834565b602080601f831160018114620008f55760008415620008dc5750858301515b600019600386901b1c1916600185901b17855562000880565b600085815260208120601f198616915b82811015620009265788860151825594840194600190910190840162000905565b5085821015620009455787850151600019600388901b60f8161c191681555b5050505050600190811b01905550565b6000825160005b818110156200097857602081860181015185830152016200095c565b506000920191825250919050565b611cac80620009966000396000f3fe608060405234801561001057600080fd5b50600436106101f05760003560e01c80638522aeda1161010f578063bab2f552116100a2578063dd62ed3e11610071578063dd62ed3e14610466578063e60763f61461049f578063f2fde38b146104b2578063faa3022d146104c557600080fd5b8063bab2f55214610408578063ce4cda7414610410578063d1b0a19e14610423578063d607daf61461044657600080fd5b8063975dceff116100de578063975dceff146103c75780639f13f76d146103d7578063a9059cbb146103e7578063a932492f146103fa57600080fd5b80638522aeda1461037e5780638da5cb5b1461039157806391934aa0146103ac57806395d89b41146103bf57600080fd5b806337afc04911610187578063604857421161015657806360485742146103315780636f7c48f61461033a57806370a082311461034d578063715018a61461037657600080fd5b806337afc049146102b25780633db9c7e7146102c557806340b892701461030f5780635c0204d91461031e57600080fd5b8063249d026b116101c3578063249d026b1461025b57806327ff62231461027e5780632b7997031461028e578063313ce567146102a357600080fd5b806306fdde03146101f5578063095ea7b31461021357806318160ddd1461023657806323b872dd14610248575b600080fd5b6101fd6104d8565b60405161020a919061165a565b60405180910390f35b61022661022136600461168b565b61056a565b604051901515815260200161020a565b6002545b60405190815260200161020a565b6102266102563660046116b5565b610584565b61026e610269366004611794565b6105a8565b60405161020a94939291906117c9565b61023a68056bc75e2d6310000081565b6102a161029c366004611794565b610664565b005b6040516012815260200161020a565b61023a6102c03660046117f9565b610748565b6102fa6102d3366004611794565b80516020818301810180516007825292820191909301209152805460019091015460ff1682565b6040805192835290151560208301520161020a565b61023a670de0b6b3a764000081565b6102a161032c36600461184e565b610861565b61023a600a5481565b61023a610348366004611794565b6108c8565b61023a61035b366004611881565b6001600160a01b031660009081526020819052604090205490565b6102a16108f0565b61023a61038c3660046117f9565b610904565b6005546040516001600160a01b03909116815260200161020a565b6102a16103ba36600461189c565b610c01565b6101fd610c17565b61023a6802b5e3af16b188000081565b61023a683635c9adc5dea0000081565b6102266103f536600461168b565b610c26565b61023a66b1a2bc2ec5000081565b6101fd610c34565b6101fd61041e366004611794565b610cc2565b610226610431366004611881565b60096020526000908152604090205460ff1681565b610459610454366004611794565b610d72565b60405161020a9190611900565b61023a610474366004611946565b6001600160a01b03918216600090815260016020908152604080832093909416825291909152205490565b6102a16104ad366004611970565b610e7d565b6102a16104c0366004611881565b610e95565b6101fd6104d3366004611794565b610ed3565b6060600380546104e7906119c7565b80601f0160208091040260200160405190810160405280929190818152602001828054610513906119c7565b80156105605780601f1061053557610100808354040283529160200191610560565b820191906000526020600020905b81548152906001019060200180831161054357829003601f168201915b5050505050905090565b600033610578818585610ef7565b60019150505b92915050565b600033610592858285610f04565b61059d858585610f83565b506001949350505050565b8051602081830181018051600682529282019190930120915280546001820154600283018054929391926105db906119c7565b80601f0160208091040260200160405190810160405280929190818152602001828054610607906119c7565b80156106545780601f1061062957610100808354040283529160200191610654565b820191906000526020600020905b81548152906001019060200180831161063757829003601f168201915b5050505050908060030154905084565b61066c610fe2565b6000600b805461067b906119c7565b80601f01602080910402602001604051908101604052809291908181526020018280546106a7906119c7565b80156106f45780601f106106c9576101008083540402835291602001916106f4565b820191906000526020600020905b8154815290600101906020018083116106d757829003601f168201915b5050505050905081600b908161070a9190611a51565b507f15853cb15499e81a397332e3ea36c9a38487e0a5a2e94ec727d6ee18635db8e1818360405161073c929190611b11565b60405180910390a15050565b6000806107548361100f565b905060006008856040516107689190611b36565b90815260200160405180910390208054610781906119c7565b80601f01602080910402602001604051908101604052809291908181526020018280546107ad906119c7565b80156107fa5780601f106107cf576101008083540402835291602001916107fa565b820191906000526020600020905b8154815290600101906020018083116107dd57829003601f168201915b5050505050905060006007826040516108139190611b36565b90815260200160405180910390206000015490508060000361083a5750670de0b6b3a76400005b670de0b6b3a764000061084d8285611b68565b6108579190611b95565b9695505050505050565b610869610fe2565b6001600160a01b038216600081815260096020908152604091829020805460ff191685151590811790915591519182527fb6c3b420153e57fd944cf3c7ac2c4cba781c9af1227e308bcfd198f6d772863c910160405180910390a25050565b60006007826040516108da9190611b36565b9081526040519081900360200190205492915050565b6108f8610fe2565b61090260006110ab565b565b3360009081526009602052604081205460ff166109685760405162461bcd60e51b815260206004820152601760248201527f4e6f7420617574686f72697a656420617474657374657200000000000000000060448201526064015b60405180910390fd5b670de0b6b3a76400008210156109b65760405162461bcd60e51b815260206004820152601360248201527253636f72652062656c6f77206d696e696d756d60681b604482015260640161095f565b68056bc75e2d63100000821115610a075760405162461bcd60e51b815260206004820152601560248201527453636f72652065786365656473206d6178696d756d60581b604482015260640161095f565b6000610a128361100f565b90506000600885604051610a269190611b36565b90815260200160405180910390208054610a3f906119c7565b80601f0160208091040260200160405190810160405280929190818152602001828054610a6b906119c7565b8015610ab85780601f10610a8d57610100808354040283529160200191610ab8565b820191906000526020600020905b815481529060010190602001808311610a9b57829003601f168201915b505050505090506000600782604051610ad19190611b36565b908152602001604051809103902060000154905080600003610af85750670de0b6b3a76400005b670de0b6b3a7640000610b0b8285611b68565b610b159190611b95565b9350604051806080016040528086815260200142815260200183815260200185815250600687604051610b489190611b36565b9081526040805160209281900383019020835181559183015160018301558201516002820190610b789082611a51565b5060609190910151600390910155600a8054906000610b9683611ba9565b9190505550610ba533856110fd565b85604051610bb39190611b36565b60405180910390207f7e8a32f20ee42a50829133712d0cc523897c3786a90afa236a499291a092c54286868542604051610bf094939291906117c9565b60405180910390a250505092915050565b610c09610fe2565b610c138282611133565b5050565b6060600480546104e7906119c7565b600033610578818585610f83565b600b8054610c41906119c7565b80601f0160208091040260200160405190810160405280929190818152602001828054610c6d906119c7565b8015610cba5780601f10610c8f57610100808354040283529160200191610cba565b820191906000526020600020905b815481529060010190602001808311610c9d57829003601f168201915b505050505081565b6060600882604051610cd49190611b36565b90815260200160405180910390208054610ced906119c7565b80601f0160208091040260200160405190810160405280929190818152602001828054610d19906119c7565b8015610d665780601f10610d3b57610100808354040283529160200191610d66565b820191906000526020600020905b815481529060010190602001808311610d4957829003601f168201915b50505050509050919050565b610d9d6040518060800160405280600081526020016000815260200160608152602001600081525090565b600682604051610dad9190611b36565b90815260200160405180910390206040518060800160405290816000820154815260200160018201548152602001600282018054610dea906119c7565b80601f0160208091040260200160405190810160405280929190818152602001828054610e16906119c7565b8015610e635780601f10610e3857610100808354040283529160200191610e63565b820191906000526020600020905b815481529060010190602001808311610e4657829003601f168201915b505050505081526020016003820154815250509050919050565b610e85610fe2565b610e908383836111b7565b505050565b610e9d610fe2565b6001600160a01b038116610ec757604051631e4fbdf760e01b81526000600482015260240161095f565b610ed0816110ab565b50565b805160208183018101805160088252928201919093012091528054610c41906119c7565b610e9083838360016112f8565b6001600160a01b03838116600090815260016020908152604080832093861683529290522054600019811015610f7d5781811015610f6e57604051637dc7a0d960e11b81526001600160a01b0384166004820152602481018290526044810183905260640161095f565b610f7d848484840360006112f8565b50505050565b6001600160a01b038316610fad57604051634b637e8f60e11b81526000600482015260240161095f565b6001600160a01b038216610fd75760405163ec442f0560e01b81526000600482015260240161095f565b610e908383836113cd565b6005546001600160a01b031633146109025760405163118cdaa760e01b815233600482015260240161095f565b60008181670de0b6b3a764000061102f6802b5e3af16b188000084611bc2565b61103f66b1a2bc2ec50000611be9565b6110499190611c05565b6110539190611c35565b90506000611060826114f7565b9050600061107682670de0b6b3a7640000611c63565b9050600081611096683635c9adc5dea00000670de0b6b3a7640000611b68565b6110a09190611b95565b979650505050505050565b600580546001600160a01b038381166001600160a01b0319831681179093556040519116919082907f8be0079c531659141344cd1fd0a4f28419497f9722a3daafe3b4186f6b6457e090600090a35050565b6001600160a01b0382166111275760405163ec442f0560e01b81526000600482015260240161095f565b610c13600083836113cd565b806008836040516111449190611b36565b9081526020016040518091039020908161115e9190611a51565b508060405161116d9190611b36565b6040518091039020826040516111839190611b36565b604051908190038120907fa64cb0e2bf835e873427d2430f7c485baf053cdaf5b601db9989fbc3342a3afe90600090a35050565b6706f05b59d3b200008210156112045760405162461bcd60e51b81526020600482015260126024820152714d756c7469706c69657220746f6f206c6f7760701b604482015260640161095f565b674563918244f400008211156112525760405162461bcd60e51b815260206004820152601360248201527209aead8e8d2e0d8d2cae440e8dede40d0d2ced606b1b604482015260640161095f565b60405180604001604052808381526020018215158152506007846040516112799190611b36565b908152604051602091819003820181208351815592909101516001909201805460ff1916921515929092179091556112b2908490611b36565b604080519182900382208483528315156020840152917fa8b5a8ed6a560cb1e31657e5731728b3b3fe41a0a528c70e847939734c4df540910160405180910390a2505050565b6001600160a01b0384166113225760405163e602df0560e01b81526000600482015260240161095f565b6001600160a01b03831661134c57604051634a1406b160e11b81526000600482015260240161095f565b6001600160a01b0380851660009081526001602090815260408083209387168352929052208290558015610f7d57826001600160a01b0316846001600160a01b03167f8c5be1e5ebec7d5bd14f71427d1e84f3dd0314c0f7b2291e5b200ac8c7c3b925846040516113bf91815260200190565b60405180910390a350505050565b6001600160a01b0383166113f85780600260008282546113ed9190611c63565b9091555061146a9050565b6001600160a01b0383166000908152602081905260409020548181101561144b5760405163391434e360e21b81526001600160a01b0385166004820152602481018290526044810183905260640161095f565b6001600160a01b03841660009081526020819052604090209082900390555b6001600160a01b038216611486576002805482900390556114a5565b6001600160a01b03821660009081526020819052604090208054820190555b816001600160a01b0316836001600160a01b03167fddf252ad1be2c89b69c2b068fc378daa952ba7f163c4a11628f55a4df523b3ef836040516114ea91815260200190565b60405180910390a3505050565b60006801158e460913d000008213156115175761057e6002600019611b95565b6801158e460913cfffff1982121561153157506000919050565b6000821261158a57816000670de0b6b3a764000061154f8380611b68565b6115599190611b95565b9050611566600282611b95565b61157883670de0b6b3a7640000611c63565b6115829190611c63565b949350505050565b600061159583611be9565b90506000670de0b6b3a76400006115ac8380611b68565b6115b69190611b95565b905060006115c5600283611b95565b6115d784670de0b6b3a7640000611c63565b6115e19190611c63565b90506115fc816ec097ce7bc90715b34b9f1000000000611b95565b95945050505050565b919050565b60005b8381101561162557818101518382015260200161160d565b50506000910152565b6000815180845261164681602086016020860161160a565b601f01601f19169290920160200192915050565b60208152600061166d602083018461162e565b9392505050565b80356001600160a01b038116811461160557600080fd5b6000806040838503121561169e57600080fd5b6116a783611674565b946020939093013593505050565b6000806000606084860312156116ca57600080fd5b6116d384611674565b92506116e160208501611674565b9150604084013590509250925092565b634e487b7160e01b600052604160045260246000fd5b600082601f83011261171857600080fd5b813567ffffffffffffffff80821115611733576117336116f1565b604051601f8301601f19908116603f0116810190828211818310171561175b5761175b6116f1565b8160405283815286602085880101111561177457600080fd5b836020870160208301376000602085830101528094505050505092915050565b6000602082840312156117a657600080fd5b813567ffffffffffffffff8111156117bd57600080fd5b61158284828501611707565b8481528360208201526080604082015260006117e8608083018561162e565b905082606083015295945050505050565b6000806040838503121561180c57600080fd5b823567ffffffffffffffff81111561182357600080fd5b61182f85828601611707565b95602094909401359450505050565b8035801515811461160557600080fd5b6000806040838503121561186157600080fd5b61186a83611674565b91506118786020840161183e565b90509250929050565b60006020828403121561189357600080fd5b61166d82611674565b600080604083850312156118af57600080fd5b823567ffffffffffffffff808211156118c757600080fd5b6118d386838701611707565b935060208501359150808211156118e957600080fd5b506118f685828601611707565b9150509250929050565b602081528151602082015260208201516040820152600060408301516080606084015261193060a084018261162e565b9050606084015160808401528091505092915050565b6000806040838503121561195957600080fd5b61196283611674565b915061187860208401611674565b60008060006060848603121561198557600080fd5b833567ffffffffffffffff81111561199c57600080fd5b6119a886828701611707565b935050602084013591506119be6040850161183e565b90509250925092565b600181811c908216806119db57607f821691505b6020821081036119fb57634e487b7160e01b600052602260045260246000fd5b50919050565b601f821115610e90576000816000526020600020601f850160051c81016020861015611a2a5750805b601f850160051c820191505b81811015611a4957828155600101611a36565b505050505050565b815167ffffffffffffffff811115611a6b57611a6b6116f1565b611a7f81611a7984546119c7565b84611a01565b602080601f831160018114611ab45760008415611a9c5750858301515b600019600386901b1c1916600185901b178555611a49565b600085815260208120601f198616915b82811015611ae357888601518255948401946001909101908401611ac4565b5085821015611b015787850151600019600388901b60f8161c191681555b5050505050600190811b01905550565b604081526000611b24604083018561162e565b82810360208401526115fc818561162e565b60008251611b4881846020870161160a565b9190910192915050565b634e487b7160e01b600052601160045260246000fd5b808202811582820484141761057e5761057e611b52565b634e487b7160e01b600052601260045260246000fd5b600082611ba457611ba4611b7f565b500490565b600060018201611bbb57611bbb611b52565b5060010190565b8181036000831280158383131683831282161715611be257611be2611b52565b5092915050565b6000600160ff1b8201611bfe57611bfe611b52565b5060000390565b80820260008212600160ff1b84141615611c2157611c21611b52565b818105831482151761057e5761057e611b52565b600082611c4457611c44611b7f565b600160ff1b821460001984141615611c5e57611c5e611b52565b500590565b8082018082111561057e5761057e611b5256fea2646970667358221220ef449829a535b6b1d24666edb3696936814fd239085711328d39905e9517250264736f6c63430008180033","opcodes":"PUSH1 0x80 PUSH1 0x40 MSTORE CALLVALUE DUP1 ISZERO PUSH3 0x11 JUMPI PUSH1 0x0 DUP1 REVERT JUMPDEST POP PUSH1 0x40 MLOAD PUSH3 0x2642 CODESIZE SUB DUP1 PUSH3 0x2642 DUP4 CODECOPY DUP2 ADD PUSH1 0x40 DUP2 SWAP1 MSTORE PUSH3 0x34 SWAP2 PUSH3 0x7B0 JUMP JUMPDEST DUP1 PUSH1 0x40 MLOAD DUP1 PUSH1 0x40 ADD PUSH1 0x40 MSTORE DUP1 PUSH1 0x1A DUP2 MSTORE PUSH1 0x20 ADD PUSH32 0x4D6F6269757320496E74656C6C6967656E636520437265646974000000000000 DUP2 MSTORE POP PUSH1 0x40 MLOAD DUP1 PUSH1 0x40 ADD PUSH1 0x40 MSTORE DUP1 PUSH1 0x3 DUP2 MSTORE PUSH1 0x20 ADD PUSH3 0x4D4943 PUSH1 0xE8 SHL DUP2 MSTORE POP DUP2 PUSH1 0x3 SWAP1 DUP2 PUSH3 0x98 SWAP2 SWAP1 PUSH3 0x889 JUMP JUMPDEST POP PUSH1 0x4 PUSH3 0xA7 DUP3 DUP3 PUSH3 0x889 JUMP JUMPDEST POP POP POP PUSH1 0x1 PUSH1 0x1 PUSH1 0xA0 SHL SUB DUP2 AND PUSH3 0xDA JUMPI PUSH1 0x40 MLOAD PUSH4 0x1E4FBDF7 PUSH1 0xE0 SHL DUP2 MSTORE PUSH1 0x0 PUSH1 0x4 DUP3 ADD MSTORE PUSH1 0x24 ADD JUMPDEST PUSH1 0x40 MLOAD DUP1 SWAP2 SUB SWAP1 REVERT JUMPDEST PUSH3 0xE5 DUP2 PUSH3 0x57F JUMP JUMPDEST POP PUSH1 0x40 DUP1 MLOAD DUP1 DUP3 ADD SWAP1 SWAP2 MSTORE PUSH1 0x5 DUP2 MSTORE PUSH5 0x432D313531 PUSH1 0xD8 SHL PUSH1 0x20 DUP3 ADD MSTORE PUSH1 0xB SWAP1 PUSH3 0x111 SWAP1 DUP3 PUSH3 0x889 JUMP JUMPDEST POP PUSH1 0x40 DUP1 MLOAD DUP1 DUP3 ADD SWAP1 SWAP2 MSTORE PUSH1 0xF DUP2 MSTORE PUSH15 0x464F522D474F5645524E4D454E5453 PUSH1 0x88 SHL PUSH1 0x20 DUP3 ADD MSTORE PUSH3 0x14E SWAP1 PUSH8 0x1BC16D674EC80000 PUSH1 0x1 PUSH3 0x5D1 JUMP JUMPDEST PUSH1 0x40 DUP1 MLOAD DUP1 DUP3 ADD SWAP1 SWAP2 MSTORE PUSH1 0xE DUP2 MSTORE PUSH14 0x464F522D45434F4E4F4D49535453 PUSH1 0x90 SHL PUSH1 0x20 DUP3 ADD MSTORE PUSH3 0x189 SWAP1 PUSH8 0x14D1120D7B160000 PUSH1 0x1 PUSH3 0x5D1 JUMP JUMPDEST PUSH1 0x40 DUP1 MLOAD DUP1 DUP3 ADD SWAP1 SWAP2 MSTORE PUSH1 0xD DUP2 MSTORE PUSH13 0x464F522D41434144454D494353 PUSH1 0x98 SHL PUSH1 0x20 DUP3 ADD MSTORE PUSH3 0x1C3 SWAP1 PUSH8 0x10A741A462780000 PUSH1 0x1 PUSH3 0x5D1 JUMP JUMPDEST PUSH1 0x40 DUP1 MLOAD DUP1 DUP3 ADD SWAP1 SWAP2 MSTORE PUSH1 0x10 DUP2 MSTORE PUSH16 0x464F522D5048494C4F534F5048455253 PUSH1 0x80 SHL PUSH1 0x20 DUP3 ADD MSTORE PUSH3 0x200 SWAP1 PUSH8 0xDE0B6B3A7640000 PUSH1 0x1 PUSH3 0x5D1 JUMP JUMPDEST PUSH3 0x256 PUSH1 0x40 MLOAD DUP1 PUSH1 0x40 ADD PUSH1 0x40 MSTORE DUP1 PUSH1 0x5 DUP2 MSTORE PUSH1 0x20 ADD PUSH5 0x41544C4153 PUSH1 0xD8 SHL DUP2 MSTORE POP PUSH1 0x40 MLOAD DUP1 PUSH1 0x40 ADD PUSH1 0x40 MSTORE DUP1 PUSH1 0xF DUP2 MSTORE PUSH1 0x20 ADD PUSH15 0x464F522D474F5645524E4D454E5453 PUSH1 0x88 SHL DUP2 MSTORE POP PUSH3 0x724 PUSH1 0x20 SHL PUSH1 0x20 SHR JUMP JUMPDEST PUSH3 0x2AB PUSH1 0x40 MLOAD DUP1 PUSH1 0x40 ADD PUSH1 0x40 MSTORE DUP1 PUSH1 0x5 DUP2 MSTORE PUSH1 0x20 ADD PUSH5 0x4155524541 PUSH1 0xD8 SHL DUP2 MSTORE POP PUSH1 0x40 MLOAD DUP1 PUSH1 0x40 ADD PUSH1 0x40 MSTORE DUP1 PUSH1 0xE DUP2 MSTORE PUSH1 0x20 ADD PUSH14 0x464F522D45434F4E4F4D49535453 PUSH1 0x90 SHL DUP2 MSTORE POP PUSH3 0x724 PUSH1 0x20 SHL PUSH1 0x20 SHR JUMP JUMPDEST PUSH3 0x2FE PUSH1 0x40 MLOAD DUP1 PUSH1 0x40 ADD PUSH1 0x40 MSTORE DUP1 PUSH1 0x4 DUP2 MSTORE PUSH1 0x20 ADD PUSH4 0x4543484F PUSH1 0xE0 SHL DUP2 MSTORE POP PUSH1 0x40 MLOAD DUP1 PUSH1 0x40 ADD PUSH1 0x40 MSTORE DUP1 PUSH1 0xD DUP2 MSTORE PUSH1 0x20 ADD PUSH13 0x464F522D41434144454D494353 PUSH1 0x98 SHL DUP2 MSTORE POP PUSH3 0x724 PUSH1 0x20 SHL PUSH1 0x20 SHR JUMP JUMPDEST PUSH3 0x353 PUSH1 0x40 MLOAD DUP1 PUSH1 0x40 ADD PUSH1 0x40 MSTORE DUP1 PUSH1 0x3 DUP2 MSTORE PUSH1 0x20 ADD PUSH3 0x455645 PUSH1 0xE8 SHL DUP2 MSTORE POP PUSH1 0x40 MLOAD DUP1 PUSH1 0x40 ADD PUSH1 0x40 MSTORE DUP1 PUSH1 0x10 DUP2 MSTORE PUSH1 0x20 ADD PUSH16 0x464F522D5048494C4F534F5048455253 PUSH1 0x80 SHL DUP2 MSTORE POP PUSH3 0x724 PUSH1 0x20 SHL PUSH1 0x20 SHR JUMP JUMPDEST PUSH3 0x3AA PUSH1 0x40 MLOAD DUP1 PUSH1 0x40 ADD PUSH1 0x40 MSTORE DUP1 PUSH1 0x6 DUP2 MSTORE PUSH1 0x20 ADD PUSH6 0x4845524D4553 PUSH1 0xD0 SHL DUP2 MSTORE POP PUSH1 0x40 MLOAD DUP1 PUSH1 0x40 ADD PUSH1 0x40 MSTORE DUP1 PUSH1 0xF DUP2 MSTORE PUSH1 0x20 ADD PUSH15 0x464F522D474F5645524E4D454E5453 PUSH1 0x88 SHL DUP2 MSTORE POP PUSH3 0x724 PUSH1 0x20 SHL PUSH1 0x20 SHR JUMP JUMPDEST PUSH3 0x400 PUSH1 0x40 MLOAD DUP1 PUSH1 0x40 ADD PUSH1 0x40 MSTORE DUP1 PUSH1 0x4 DUP2 MSTORE PUSH1 0x20 ADD PUSH4 0x4A414445 PUSH1 0xE0 SHL DUP2 MSTORE POP PUSH1 0x40 MLOAD DUP1 PUSH1 0x40 ADD PUSH1 0x40 MSTORE DUP1 PUSH1 0x10 DUP2 MSTORE PUSH1 0x20 ADD PUSH16 0x464F522D5048494C4F534F5048455253 PUSH1 0x80 SHL DUP2 MSTORE POP PUSH3 0x724 PUSH1 0x20 SHL PUSH1 0x20 SHR JUMP JUMPDEST PUSH3 0x454 PUSH1 0x40 MLOAD DUP1 PUSH1 0x40 ADD PUSH1 0x40 MSTORE DUP1 PUSH1 0x5 DUP2 MSTORE PUSH1 0x20 ADD PUSH5 0x1554925153 PUSH1 0xDA SHL DUP2 MSTORE POP PUSH1 0x40 MLOAD DUP1 PUSH1 0x40 ADD PUSH1 0x40 MSTORE DUP1 PUSH1 0xD DUP2 MSTORE PUSH1 0x20 ADD PUSH13 0x464F522D41434144454D494353 PUSH1 0x98 SHL DUP2 MSTORE POP PUSH3 0x724 PUSH1 0x20 SHL PUSH1 0x20 SHR JUMP JUMPDEST PUSH3 0x4A9 PUSH1 0x40 MLOAD DUP1 PUSH1 0x40 ADD PUSH1 0x40 MSTORE DUP1 PUSH1 0x4 DUP2 MSTORE PUSH1 0x20 ADD PUSH4 0x5A455553 PUSH1 0xE0 SHL DUP2 MSTORE POP PUSH1 0x40 MLOAD DUP1 PUSH1 0x40 ADD PUSH1 0x40 MSTORE DUP1 PUSH1 0xF DUP2 MSTORE PUSH1 0x20 ADD PUSH15 0x464F522D474F5645524E4D454E5453 PUSH1 0x88 SHL DUP2 MSTORE POP PUSH3 0x724 PUSH1 0x20 SHL PUSH1 0x20 SHR JUMP JUMPDEST PUSH3 0x4FF PUSH1 0x40 MLOAD DUP1 PUSH1 0x40 ADD PUSH1 0x40 MSTORE DUP1 PUSH1 0x6 DUP2 MSTORE PUSH1 0x20 ADD PUSH6 0xB48A9C92A89 PUSH1 0xD3 SHL DUP2 MSTORE POP PUSH1 0x40 MLOAD DUP1 PUSH1 0x40 ADD PUSH1 0x40 MSTORE DUP1 PUSH1 0xE DUP2 MSTORE PUSH1 0x20 ADD PUSH14 0x464F522D45434F4E4F4D49535453 PUSH1 0x90 SHL DUP2 MSTORE POP PUSH3 0x724 PUSH1 0x20 SHL PUSH1 0x20 SHR JUMP JUMPDEST PUSH3 0x557 PUSH1 0x40 MLOAD DUP1 PUSH1 0x40 ADD PUSH1 0x40 MSTORE DUP1 PUSH1 0x8 DUP2 MSTORE PUSH1 0x20 ADD PUSH8 0x44414544414C5553 PUSH1 0xC0 SHL DUP2 MSTORE POP PUSH1 0x40 MLOAD DUP1 PUSH1 0x40 ADD PUSH1 0x40 MSTORE DUP1 PUSH1 0xE DUP2 MSTORE PUSH1 0x20 ADD PUSH14 0x464F522D45434F4E4F4D49535453 PUSH1 0x90 SHL DUP2 MSTORE POP PUSH3 0x724 PUSH1 0x20 SHL PUSH1 0x20 SHR JUMP JUMPDEST PUSH1 0x1 PUSH1 0x1 PUSH1 0xA0 SHL SUB AND PUSH1 0x0 SWAP1 DUP2 MSTORE PUSH1 0x9 PUSH1 0x20 MSTORE PUSH1 0x40 SWAP1 KECCAK256 DUP1 SLOAD PUSH1 0xFF NOT AND PUSH1 0x1 OR SWAP1 SSTORE PUSH3 0x986 JUMP JUMPDEST PUSH1 0x5 DUP1 SLOAD PUSH1 0x1 PUSH1 0x1 PUSH1 0xA0 SHL SUB DUP4 DUP2 AND PUSH1 0x1 PUSH1 0x1 PUSH1 0xA0 SHL SUB NOT DUP4 AND DUP2 OR SWAP1 SWAP4 SSTORE PUSH1 0x40 MLOAD SWAP2 AND SWAP2 SWAP1 DUP3 SWAP1 PUSH32 0x8BE0079C531659141344CD1FD0A4F28419497F9722A3DAAFE3B4186F6B6457E0 SWAP1 PUSH1 0x0 SWAP1 LOG3 POP POP JUMP JUMPDEST PUSH8 0x6F05B59D3B20000 DUP3 LT ISZERO PUSH3 0x620 JUMPI PUSH1 0x40 MLOAD PUSH3 0x461BCD PUSH1 0xE5 SHL DUP2 MSTORE PUSH1 0x20 PUSH1 0x4 DUP3 ADD MSTORE PUSH1 0x12 PUSH1 0x24 DUP3 ADD MSTORE PUSH18 0x4D756C7469706C69657220746F6F206C6F77 PUSH1 0x70 SHL PUSH1 0x44 DUP3 ADD MSTORE PUSH1 0x64 ADD PUSH3 0xD1 JUMP JUMPDEST PUSH8 0x4563918244F40000 DUP3 GT ISZERO PUSH3 0x67A JUMPI PUSH1 0x40 MLOAD PUSH3 0x461BCD PUSH1 0xE5 SHL DUP2 MSTORE PUSH1 0x20 PUSH1 0x4 DUP3 ADD MSTORE PUSH1 0x13 PUSH1 0x24 DUP3 ADD MSTORE PUSH32 0x4D756C7469706C69657220746F6F206869676800000000000000000000000000 PUSH1 0x44 DUP3 ADD MSTORE PUSH1 0x64 ADD PUSH3 0xD1 JUMP JUMPDEST PUSH1 0x40 MLOAD DUP1 PUSH1 0x40 ADD PUSH1 0x40 MSTORE DUP1 DUP4 DUP2 MSTORE PUSH1 0x20 ADD DUP3 ISZERO ISZERO DUP2 MSTORE POP PUSH1 0x7 DUP5 PUSH1 0x40 MLOAD PUSH3 0x6A3 SWAP2 SWAP1 PUSH3 0x955 JUMP JUMPDEST SWAP1 DUP2 MSTORE PUSH1 0x40 MLOAD PUSH1 0x20 SWAP2 DUP2 SWAP1 SUB DUP3 ADD DUP2 KECCAK256 DUP4 MLOAD DUP2 SSTORE SWAP3 SWAP1 SWAP2 ADD MLOAD PUSH1 0x1 SWAP1 SWAP3 ADD DUP1 SLOAD PUSH1 0xFF NOT AND SWAP3 ISZERO ISZERO SWAP3 SWAP1 SWAP3 OR SWAP1 SWAP2 SSTORE PUSH3 0x6DE SWAP1 DUP5 SWAP1 PUSH3 0x955 JUMP JUMPDEST PUSH1 0x40 DUP1 MLOAD SWAP2 DUP3 SWAP1 SUB DUP3 KECCAK256 DUP5 DUP4 MSTORE DUP4 ISZERO ISZERO PUSH1 0x20 DUP5 ADD MSTORE SWAP2 PUSH32 0xA8B5A8ED6A560CB1E31657E5731728B3B3FE41A0A528C70E847939734C4DF540 SWAP2 ADD PUSH1 0x40 MLOAD DUP1 SWAP2 SUB SWAP1 LOG2 POP POP POP JUMP JUMPDEST DUP1 PUSH1 0x8 DUP4 PUSH1 0x40 MLOAD PUSH3 0x737 SWAP2 SWAP1 PUSH3 0x955 JUMP JUMPDEST SWAP1 DUP2 MSTORE PUSH1 0x20 ADD PUSH1 0x40 MLOAD DUP1 SWAP2 SUB SWAP1 KECCAK256 SWAP1 DUP2 PUSH3 0x753 SWAP2 SWAP1 PUSH3 0x889 JUMP JUMPDEST POP DUP1 PUSH1 0x40 MLOAD PUSH3 0x764 SWAP2 SWAP1 PUSH3 0x955 JUMP JUMPDEST PUSH1 0x40 MLOAD DUP1 SWAP2 SUB SWAP1 KECCAK256 DUP3 PUSH1 0x40 MLOAD PUSH3 0x77C SWAP2 SWAP1 PUSH3 0x955 JUMP JUMPDEST PUSH1 0x40 MLOAD SWAP1 DUP2 SWAP1 SUB DUP2 KECCAK256 SWAP1 PUSH32 0xA64CB0E2BF835E873427D2430F7C485BAF053CDAF5B601DB9989FBC3342A3AFE SWAP1 PUSH1 0x0 SWAP1 LOG3 POP POP JUMP JUMPDEST PUSH1 0x0 PUSH1 0x20 DUP3 DUP5 SUB SLT ISZERO PUSH3 0x7C3 JUMPI PUSH1 0x0 DUP1 REVERT JUMPDEST DUP2 MLOAD PUSH1 0x1 PUSH1 0x1 PUSH1 0xA0 SHL SUB DUP2 AND DUP2 EQ PUSH3 0x7DB JUMPI PUSH1 0x0 DUP1 REVERT JUMPDEST SWAP4 SWAP3 POP POP POP JUMP JUMPDEST PUSH4 0x4E487B71 PUSH1 0xE0 SHL PUSH1 0x0 MSTORE PUSH1 0x41 PUSH1 0x4 MSTORE PUSH1 0x24 PUSH1 0x0 REVERT JUMPDEST PUSH1 0x1 DUP2 DUP2 SHR SWAP1 DUP3 AND DUP1 PUSH3 0x80D JUMPI PUSH1 0x7F DUP3 AND SWAP2 POP JUMPDEST PUSH1 0x20 DUP3 LT DUP2 SUB PUSH3 0x82E JUMPI PUSH4 0x4E487B71 PUSH1 0xE0 SHL PUSH1 0x0 MSTORE PUSH1 0x22 PUSH1 0x4 MSTORE PUSH1 0x24 PUSH1 0x0 REVERT JUMPDEST POP SWAP2 SWAP1 POP JUMP JUMPDEST PUSH1 0x1F DUP3 GT ISZERO PUSH3 0x884 JUMPI PUSH1 0x0 DUP2 PUSH1 0x0 MSTORE PUSH1 0x20 PUSH1 0x0 KECCAK256 PUSH1 0x1F DUP6 ADD PUSH1 0x5 SHR DUP2 ADD PUSH1 0x20 DUP7 LT ISZERO PUSH3 0x85F JUMPI POP DUP1 JUMPDEST PUSH1 0x1F DUP6 ADD PUSH1 0x5 SHR DUP3 ADD SWAP2 POP JUMPDEST DUP2 DUP2 LT ISZERO PUSH3 0x880 JUMPI DUP3 DUP2 SSTORE PUSH1 0x1 ADD PUSH3 0x86B JUMP JUMPDEST POP POP POP JUMPDEST POP POP POP JUMP JUMPDEST DUP2 MLOAD PUSH1 0x1 PUSH1 0x1 PUSH1 0x40 SHL SUB DUP2 GT ISZERO PUSH3 0x8A5 JUMPI PUSH3 0x8A5 PUSH3 0x7E2 JUMP JUMPDEST PUSH3 0x8BD DUP2 PUSH3 0x8B6 DUP5 SLOAD PUSH3 0x7F8 JUMP JUMPDEST DUP5 PUSH3 0x834 JUMP JUMPDEST PUSH1 0x20 DUP1 PUSH1 0x1F DUP4 GT PUSH1 0x1 DUP2 EQ PUSH3 0x8F5 JUMPI PUSH1 0x0 DUP5 ISZERO PUSH3 0x8DC JUMPI POP DUP6 DUP4 ADD MLOAD JUMPDEST PUSH1 0x0 NOT PUSH1 0x3 DUP7 SWAP1 SHL SHR NOT AND PUSH1 0x1 DUP6 SWAP1 SHL OR DUP6 SSTORE PUSH3 0x880 JUMP JUMPDEST PUSH1 0x0 DUP6 DUP2 MSTORE PUSH1 0x20 DUP2 KECCAK256 PUSH1 0x1F NOT DUP7 AND SWAP2 JUMPDEST DUP3 DUP2 LT ISZERO PUSH3 0x926 JUMPI DUP9 DUP7 ADD MLOAD DUP3 SSTORE SWAP5 DUP5 ADD SWAP5 PUSH1 0x1 SWAP1 SWAP2 ADD SWAP1 DUP5 ADD PUSH3 0x905 JUMP JUMPDEST POP DUP6 DUP3 LT ISZERO PUSH3 0x945 JUMPI DUP8 DUP6 ADD MLOAD PUSH1 0x0 NOT PUSH1 0x3 DUP9 SWAP1 SHL PUSH1 0xF8 AND SHR NOT AND DUP2 SSTORE JUMPDEST POP POP POP POP POP PUSH1 0x1 SWAP1 DUP2 SHL ADD SWAP1 SSTORE POP JUMP JUMPDEST PUSH1 0x0 DUP3 MLOAD PUSH1 0x0 JUMPDEST DUP2 DUP2 LT ISZERO PUSH3 0x978 JUMPI PUSH1 0x20 DUP2 DUP7 ADD DUP2 ADD MLOAD DUP6 DUP4 ADD MSTORE ADD PUSH3 0x95C JUMP JUMPDEST POP PUSH1 0x0 SWAP3 ADD SWAP2 DUP3 MSTORE POP SWAP2 SWAP1 POP JUMP JUMPDEST PUSH2 0x1CAC DUP1 PUSH3 0x996 PUSH1 0x0 CODECOPY PUSH1 0x0 RETURN INVALID PUSH1 0x80 PUSH1 0x40 MSTORE CALLVALUE DUP1 ISZERO PUSH2 0x10 JUMPI PUSH1 0x0 DUP1 REVERT JUMPDEST POP PUSH1 0x4 CALLDATASIZE LT PUSH2 0x1F0 JUMPI PUSH1 0x0 CALLDATALOAD PUSH1 0xE0 SHR DUP1 PUSH4 0x8522AEDA GT PUSH2 0x10F JUMPI DUP1 PUSH4 0xBAB2F552 GT PUSH2 0xA2 JUMPI DUP1 PUSH4 0xDD62ED3E GT PUSH2 0x71 JUMPI DUP1 PUSH4 0xDD62ED3E EQ PUSH2 0x466 JUMPI DUP1 PUSH4 0xE60763F6 EQ PUSH2 0x49F JUMPI DUP1 PUSH4 0xF2FDE38B EQ PUSH2 0x4B2 JUMPI DUP1 PUSH4 0xFAA3022D EQ PUSH2 0x4C5 JUMPI PUSH1 0x0 DUP1 REVERT JUMPDEST DUP1 PUSH4 0xBAB2F552 EQ PUSH2 0x408 JUMPI DUP1 PUSH4 0xCE4CDA74 EQ PUSH2 0x410 JUMPI DUP1 PUSH4 0xD1B0A19E EQ PUSH2 0x423 JUMPI DUP1 PUSH4 0xD607DAF6 EQ PUSH2 0x446 JUMPI PUSH1 0x0 DUP1 REVERT JUMPDEST DUP1 PUSH4 0x975DCEFF GT PUSH2 0xDE JUMPI DUP1 PUSH4 0x975DCEFF EQ PUSH2 0x3C7 JUMPI DUP1 PUSH4 0x9F13F76D EQ PUSH2 0x3D7 JUMPI DUP1 PUSH4 0xA9059CBB EQ PUSH2 0x3E7 JUMPI DUP1 PUSH4 0xA932492F EQ PUSH2 0x3FA JUMPI PUSH1 0x0 DUP1 REVERT JUMPDEST DUP1 PUSH4 0x8522AEDA EQ PUSH2 0x37E JUMPI DUP1 PUSH4 0x8DA5CB5B EQ PUSH2 0x391 JUMPI DUP1 PUSH4 0x91934AA0 EQ PUSH2 0x3AC JUMPI DUP1 PUSH4 0x95D89B41 EQ PUSH2 0x3BF JUMPI PUSH1 0x0 DUP1 REVERT JUMPDEST DUP1 PUSH4 0x37AFC049 GT PUSH2 0x187 JUMPI DUP1 PUSH4 0x60485742 GT PUSH2 0x156 JUMPI DUP1 PUSH4 0x60485742 EQ PUSH2 0x331 JUMPI DUP1 PUSH4 0x6F7C48F6 EQ PUSH2 0x33A JUMPI DUP1 PUSH4 0x70A08231 EQ PUSH2 0x34D JUMPI DUP1 PUSH4 0x715018A6 EQ PUSH2 0x376 JUMPI PUSH1 0x0 DUP1 REVERT JUMPDEST DUP1 PUSH4 0x37AFC049 EQ PUSH2 0x2B2 JUMPI DUP1 PUSH4 0x3DB9C7E7 EQ PUSH2 0x2C5 JUMPI DUP1 PUSH4 0x40B89270 EQ PUSH2 0x30F JUMPI DUP1 PUSH4 0x5C0204D9 EQ PUSH2 0x31E JUMPI PUSH1 0x0 DUP1 REVERT JUMPDEST DUP1 PUSH4 0x249D026B GT PUSH2 0x1C3 JUMPI DUP1 PUSH4 0x249D026B EQ PUSH2 0x25B JUMPI DUP1 PUSH4 0x27FF6223 EQ PUSH2 0x27E JUMPI DUP1 PUSH4 0x2B799703 EQ PUSH2 0x28E JUMPI DUP1 PUSH4 0x313CE567 EQ PUSH2 0x2A3 JUMPI PUSH1 0x0 DUP1 REVERT JUMPDEST DUP1 PUSH4 0x6FDDE03 EQ PUSH2 0x1F5 JUMPI DUP1 PUSH4 0x95EA7B3 EQ PUSH2 0x213 JUMPI DUP1 PUSH4 0x18160DDD EQ PUSH2 0x236 JUMPI DUP1 PUSH4 0x23B872DD EQ PUSH2 0x248 JUMPI JUMPDEST PUSH1 0x0 DUP1 REVERT JUMPDEST PUSH2 0x1FD PUSH2 0x4D8 JUMP JUMPDEST PUSH1 0x40 MLOAD PUSH2 0x20A SWAP2 SWAP1 PUSH2 0x165A JUMP JUMPDEST PUSH1 0x40 MLOAD DUP1 SWAP2 SUB SWAP1 RETURN JUMPDEST PUSH2 0x226 PUSH2 0x221 CALLDATASIZE PUSH1 0x4 PUSH2 0x168B JUMP JUMPDEST PUSH2 0x56A JUMP JUMPDEST PUSH1 0x40 MLOAD SWAP1 ISZERO ISZERO DUP2 MSTORE PUSH1 0x20 ADD PUSH2 0x20A JUMP JUMPDEST PUSH1 0x2 SLOAD JUMPDEST PUSH1 0x40 MLOAD SWAP1 DUP2 MSTORE PUSH1 0x20 ADD PUSH2 0x20A JUMP JUMPDEST PUSH2 0x226 PUSH2 0x256 CALLDATASIZE PUSH1 0x4 PUSH2 0x16B5 JUMP JUMPDEST PUSH2 0x584 JUMP JUMPDEST PUSH2 0x26E PUSH2 0x269 CALLDATASIZE PUSH1 0x4 PUSH2 0x1794 JUMP JUMPDEST PUSH2 0x5A8 JUMP JUMPDEST PUSH1 0x40 MLOAD PUSH2 0x20A SWAP5 SWAP4 SWAP3 SWAP2 SWAP1 PUSH2 0x17C9 JUMP JUMPDEST PUSH2 0x23A PUSH9 0x56BC75E2D63100000 DUP2 JUMP JUMPDEST PUSH2 0x2A1 PUSH2 0x29C CALLDATASIZE PUSH1 0x4 PUSH2 0x1794 JUMP JUMPDEST PUSH2 0x664 JUMP JUMPDEST STOP JUMPDEST PUSH1 0x40 MLOAD PUSH1 0x12 DUP2 MSTORE PUSH1 0x20 ADD PUSH2 0x20A JUMP JUMPDEST PUSH2 0x23A PUSH2 0x2C0 CALLDATASIZE PUSH1 0x4 PUSH2 0x17F9 JUMP JUMPDEST PUSH2 0x748 JUMP JUMPDEST PUSH2 0x2FA PUSH2 0x2D3 CALLDATASIZE PUSH1 0x4 PUSH2 0x1794 JUMP JUMPDEST DUP1 MLOAD PUSH1 0x20 DUP2 DUP4 ADD DUP2 ADD DUP1 MLOAD PUSH1 0x7 DUP3 MSTORE SWAP3 DUP3 ADD SWAP2 SWAP1 SWAP4 ADD KECCAK256 SWAP2 MSTORE DUP1 SLOAD PUSH1 0x1 SWAP1 SWAP2 ADD SLOAD PUSH1 0xFF AND DUP3 JUMP JUMPDEST PUSH1 0x40 DUP1 MLOAD SWAP3 DUP4 MSTORE SWAP1 ISZERO ISZERO PUSH1 0x20 DUP4 ADD MSTORE ADD PUSH2 0x20A JUMP JUMPDEST PUSH2 0x23A PUSH8 0xDE0B6B3A7640000 DUP2 JUMP JUMPDEST PUSH2 0x2A1 PUSH2 0x32C CALLDATASIZE PUSH1 0x4 PUSH2 0x184E JUMP JUMPDEST PUSH2 0x861 JUMP JUMPDEST PUSH2 0x23A PUSH1 0xA SLOAD DUP2 JUMP JUMPDEST PUSH2 0x23A PUSH2 0x348 CALLDATASIZE PUSH1 0x4 PUSH2 0x1794 JUMP JUMPDEST PUSH2 0x8C8 JUMP JUMPDEST PUSH2 0x23A PUSH2 0x35B CALLDATASIZE PUSH1 0x4 PUSH2 0x1881 JUMP JUMPDEST PUSH1 0x1 PUSH1 0x1 PUSH1 0xA0 SHL SUB AND PUSH1 0x0 SWAP1 DUP2 MSTORE PUSH1 0x20 DUP2 SWAP1 MSTORE PUSH1 0x40 SWAP1 KECCAK256 SLOAD SWAP1 JUMP JUMPDEST PUSH2 0x2A1 PUSH2 0x8F0 JUMP JUMPDEST PUSH2 0x23A PUSH2 0x38C CALLDATASIZE PUSH1 0x4 PUSH2 0x17F9 JUMP JUMPDEST PUSH2 0x904 JUMP JUMPDEST PUSH1 0x5 SLOAD PUSH1 0x40 MLOAD PUSH1 0x1 PUSH1 0x1 PUSH1 0xA0 SHL SUB SWAP1 SWAP2 AND DUP2 MSTORE PUSH1 0x20 ADD PUSH2 0x20A JUMP JUMPDEST PUSH2 0x2A1 PUSH2 0x3BA CALLDATASIZE PUSH1 0x4 PUSH2 0x189C JUMP JUMPDEST PUSH2 0xC01 JUMP JUMPDEST PUSH2 0x1FD PUSH2 0xC17 JUMP JUMPDEST PUSH2 0x23A PUSH9 0x2B5E3AF16B1880000 DUP2 JUMP JUMPDEST PUSH2 0x23A PUSH9 0x3635C9ADC5DEA00000 DUP2 JUMP JUMPDEST PUSH2 0x226 PUSH2 0x3F5 CALLDATASIZE PUSH1 0x4 PUSH2 0x168B JUMP JUMPDEST PUSH2 0xC26 JUMP JUMPDEST PUSH2 0x23A PUSH7 0xB1A2BC2EC50000 DUP2 JUMP JUMPDEST PUSH2 0x1FD PUSH2 0xC34 JUMP JUMPDEST PUSH2 0x1FD PUSH2 0x41E CALLDATASIZE PUSH1 0x4 PUSH2 0x1794 JUMP JUMPDEST PUSH2 0xCC2 JUMP JUMPDEST PUSH2 0x226 PUSH2 0x431 CALLDATASIZE PUSH1 0x4 PUSH2 0x1881 JUMP JUMPDEST PUSH1 0x9 PUSH1 0x20 MSTORE PUSH1 0x0 SWAP1 DUP2 MSTORE PUSH1 0x40 SWAP1 KECCAK256 SLOAD PUSH1 0xFF AND DUP2 JUMP JUMPDEST PUSH2 0x459 PUSH2 0x454 CALLDATASIZE PUSH1 0x4 PUSH2 0x1794 JUMP JUMPDEST PUSH2 0xD72 JUMP JUMPDEST PUSH1 0x40 MLOAD PUSH2 0x20A SWAP2 SWAP1 PUSH2 0x1900 JUMP JUMPDEST PUSH2 0x23A PUSH2 0x474 CALLDATASIZE PUSH1 0x4 PUSH2 0x1946 JUMP JUMPDEST PUSH1 0x1 PUSH1 0x1 PUSH1 0xA0 SHL SUB SWAP2 DUP3 AND PUSH1 0x0 SWAP1 DUP2 MSTORE PUSH1 0x1 PUSH1 0x20 SWAP1 DUP2 MSTORE PUSH1 0x40 DUP1 DUP4 KECCAK256 SWAP4 SWAP1 SWAP5 AND DUP3 MSTORE SWAP2 SWAP1 SWAP2 MSTORE KECCAK256 SLOAD SWAP1 JUMP JUMPDEST PUSH2 0x2A1 PUSH2 0x4AD CALLDATASIZE PUSH1 0x4 PUSH2 0x1970 JUMP JUMPDEST PUSH2 0xE7D JUMP JUMPDEST PUSH2 0x2A1 PUSH2 0x4C0 CALLDATASIZE PUSH1 0x4 PUSH2 0x1881 JUMP JUMPDEST PUSH2 0xE95 JUMP JUMPDEST PUSH2 0x1FD PUSH2 0x4D3 CALLDATASIZE PUSH1 0x4 PUSH2 0x1794 JUMP JUMPDEST PUSH2 0xED3 JUMP JUMPDEST PUSH1 0x60 PUSH1 0x3 DUP1 SLOAD PUSH2 0x4E7 SWAP1 PUSH2 0x19C7 JUMP JUMPDEST DUP1 PUSH1 0x1F ADD PUSH1 0x20 DUP1 SWAP2 DIV MUL PUSH1 0x20 ADD PUSH1 0x40 MLOAD SWAP1 DUP2 ADD PUSH1 0x40 MSTORE DUP1 SWAP3 SWAP2 SWAP1 DUP2 DUP2 MSTORE PUSH1 0x20 ADD DUP3 DUP1 SLOAD PUSH2 0x513 SWAP1 PUSH2 0x19C7 JUMP JUMPDEST DUP1 ISZERO PUSH2 0x560 JUMPI DUP1 PUSH1 0x1F LT PUSH2 0x535 JUMPI PUSH2 0x100 DUP1 DUP4 SLOAD DIV MUL DUP4 MSTORE SWAP2 PUSH1 0x20 ADD SWAP2 PUSH2 0x560 JUMP JUMPDEST DUP3 ADD SWAP2 SWAP1 PUSH1 0x0 MSTORE PUSH1 0x20 PUSH1 0x0 KECCAK256 SWAP1 JUMPDEST DUP2 SLOAD DUP2 MSTORE SWAP1 PUSH1 0x1 ADD SWAP1 PUSH1 0x20 ADD DUP1 DUP4 GT PUSH2 0x543 JUMPI DUP3 SWAP1 SUB PUSH1 0x1F AND DUP3 ADD SWAP2 JUMPDEST POP POP POP POP POP SWAP1 POP SWAP1 JUMP JUMPDEST PUSH1 0x0 CALLER PUSH2 0x578 DUP2 DUP6 DUP6 PUSH2 0xEF7 JUMP JUMPDEST PUSH1 0x1 SWAP2 POP POP JUMPDEST SWAP3 SWAP2 POP POP JUMP JUMPDEST PUSH1 0x0 CALLER PUSH2 0x592 DUP6 DUP3 DUP6 PUSH2 0xF04 JUMP JUMPDEST PUSH2 0x59D DUP6 DUP6 DUP6 PUSH2 0xF83 JUMP JUMPDEST POP PUSH1 0x1 SWAP5 SWAP4 POP POP POP POP JUMP JUMPDEST DUP1 MLOAD PUSH1 0x20 DUP2 DUP4 ADD DUP2 ADD DUP1 MLOAD PUSH1 0x6 DUP3 MSTORE SWAP3 DUP3 ADD SWAP2 SWAP1 SWAP4 ADD KECCAK256 SWAP2 MSTORE DUP1 SLOAD PUSH1 0x1 DUP3 ADD SLOAD PUSH1 0x2 DUP4 ADD DUP1 SLOAD SWAP3 SWAP4 SWAP2 SWAP3 PUSH2 0x5DB SWAP1 PUSH2 0x19C7 JUMP JUMPDEST DUP1 PUSH1 0x1F ADD PUSH1 0x20 DUP1 SWAP2 DIV MUL PUSH1 0x20 ADD PUSH1 0x40 MLOAD SWAP1 DUP2 ADD PUSH1 0x40 MSTORE DUP1 SWAP3 SWAP2 SWAP1 DUP2 DUP2 MSTORE PUSH1 0x20 ADD DUP3 DUP1 SLOAD PUSH2 0x607 SWAP1 PUSH2 0x19C7 JUMP JUMPDEST DUP1 ISZERO PUSH2 0x654 JUMPI DUP1 PUSH1 0x1F LT PUSH2 0x629 JUMPI PUSH2 0x100 DUP1 DUP4 SLOAD DIV MUL DUP4 MSTORE SWAP2 PUSH1 0x20 ADD SWAP2 PUSH2 0x654 JUMP JUMPDEST DUP3 ADD SWAP2 SWAP1 PUSH1 0x0 MSTORE PUSH1 0x20 PUSH1 0x0 KECCAK256 SWAP1 JUMPDEST DUP2 SLOAD DUP2 MSTORE SWAP1 PUSH1 0x1 ADD SWAP1 PUSH1 0x20 ADD DUP1 DUP4 GT PUSH2 0x637 JUMPI DUP3 SWAP1 SUB PUSH1 0x1F AND DUP3 ADD SWAP2 JUMPDEST POP POP POP POP POP SWAP1 DUP1 PUSH1 0x3 ADD SLOAD SWAP1 POP DUP5 JUMP JUMPDEST PUSH2 0x66C PUSH2 0xFE2 JUMP JUMPDEST PUSH1 0x0 PUSH1 0xB DUP1 SLOAD PUSH2 0x67B SWAP1 PUSH2 0x19C7 JUMP JUMPDEST DUP1 PUSH1 0x1F ADD PUSH1 0x20 DUP1 SWAP2 DIV MUL PUSH1 0x20 ADD PUSH1 0x40 MLOAD SWAP1 DUP2 ADD PUSH1 0x40 MSTORE DUP1 SWAP3 SWAP2 SWAP1 DUP2 DUP2 MSTORE PUSH1 0x20 ADD DUP3 DUP1 SLOAD PUSH2 0x6A7 SWAP1 PUSH2 0x19C7 JUMP JUMPDEST DUP1 ISZERO PUSH2 0x6F4 JUMPI DUP1 PUSH1 0x1F LT PUSH2 0x6C9 JUMPI PUSH2 0x100 DUP1 DUP4 SLOAD DIV MUL DUP4 MSTORE SWAP2 PUSH1 0x20 ADD SWAP2 PUSH2 0x6F4 JUMP JUMPDEST DUP3 ADD SWAP2 SWAP1 PUSH1 0x0 MSTORE PUSH1 0x20 PUSH1 0x0 KECCAK256 SWAP1 JUMPDEST DUP2 SLOAD DUP2 MSTORE SWAP1 PUSH1 0x1 ADD SWAP1 PUSH1 0x20 ADD DUP1 DUP4 GT PUSH2 0x6D7 JUMPI DUP3 SWAP1 SUB PUSH1 0x1F AND DUP3 ADD SWAP2 JUMPDEST POP POP POP POP POP SWAP1 POP DUP2 PUSH1 0xB SWAP1 DUP2 PUSH2 0x70A SWAP2 SWAP1 PUSH2 0x1A51 JUMP JUMPDEST POP PUSH32 0x15853CB15499E81A397332E3EA36C9A38487E0A5A2E94EC727D6EE18635DB8E1 DUP2 DUP4 PUSH1 0x40 MLOAD PUSH2 0x73C SWAP3 SWAP2 SWAP1 PUSH2 0x1B11 JUMP JUMPDEST PUSH1 0x40 MLOAD DUP1 SWAP2 SUB SWAP1 LOG1 POP POP JUMP JUMPDEST PUSH1 0x0 DUP1 PUSH2 0x754 DUP4 PUSH2 0x100F JUMP JUMPDEST SWAP1 POP PUSH1 0x0 PUSH1 0x8 DUP6 PUSH1 0x40 MLOAD PUSH2 0x768 SWAP2 SWAP1 PUSH2 0x1B36 JUMP JUMPDEST SWAP1 DUP2 MSTORE PUSH1 0x20 ADD PUSH1 0x40 MLOAD DUP1 SWAP2 SUB SWAP1 KECCAK256 DUP1 SLOAD PUSH2 0x781 SWAP1 PUSH2 0x19C7 JUMP JUMPDEST DUP1 PUSH1 0x1F ADD PUSH1 0x20 DUP1 SWAP2 DIV MUL PUSH1 0x20 ADD PUSH1 0x40 MLOAD SWAP1 DUP2 ADD PUSH1 0x40 MSTORE DUP1 SWAP3 SWAP2 SWAP1 DUP2 DUP2 MSTORE PUSH1 0x20 ADD DUP3 DUP1 SLOAD PUSH2 0x7AD SWAP1 PUSH2 0x19C7 JUMP JUMPDEST DUP1 ISZERO PUSH2 0x7FA JUMPI DUP1 PUSH1 0x1F LT PUSH2 0x7CF JUMPI PUSH2 0x100 DUP1 DUP4 SLOAD DIV MUL DUP4 MSTORE SWAP2 PUSH1 0x20 ADD SWAP2 PUSH2 0x7FA JUMP JUMPDEST DUP3 ADD SWAP2 SWAP1 PUSH1 0x0 MSTORE PUSH1 0x20 PUSH1 0x0 KECCAK256 SWAP1 JUMPDEST DUP2 SLOAD DUP2 MSTORE SWAP1 PUSH1 0x1 ADD SWAP1 PUSH1 0x20 ADD DUP1 DUP4 GT PUSH2 0x7DD JUMPI DUP3 SWAP1 SUB PUSH1 0x1F AND DUP3 ADD SWAP2 JUMPDEST POP POP POP POP POP SWAP1 POP PUSH1 0x0 PUSH1 0x7 DUP3 PUSH1 0x40 MLOAD PUSH2 0x813 SWAP2 SWAP1 PUSH2 0x1B36 JUMP JUMPDEST SWAP1 DUP2 MSTORE PUSH1 0x20 ADD PUSH1 0x40 MLOAD DUP1 SWAP2 SUB SWAP1 KECCAK256 PUSH1 0x0 ADD SLOAD SWAP1 POP DUP1 PUSH1 0x0 SUB PUSH2 0x83A JUMPI POP PUSH8 0xDE0B6B3A7640000 JUMPDEST PUSH8 0xDE0B6B3A7640000 PUSH2 0x84D DUP3 DUP6 PUSH2 0x1B68 JUMP JUMPDEST PUSH2 0x857 SWAP2 SWAP1 PUSH2 0x1B95 JUMP JUMPDEST SWAP7 SWAP6 POP POP POP POP POP POP JUMP JUMPDEST PUSH2 0x869 PUSH2 0xFE2 JUMP JUMPDEST PUSH1 0x1 PUSH1 0x1 PUSH1 0xA0 SHL SUB DUP3 AND PUSH1 0x0 DUP2 DUP2 MSTORE PUSH1 0x9 PUSH1 0x20 SWAP1 DUP2 MSTORE PUSH1 0x40 SWAP2 DUP3 SWAP1 KECCAK256 DUP1 SLOAD PUSH1 0xFF NOT AND DUP6 ISZERO ISZERO SWAP1 DUP2 OR SWAP1 SWAP2 SSTORE SWAP2 MLOAD SWAP2 DUP3 MSTORE PUSH32 0xB6C3B420153E57FD944CF3C7AC2C4CBA781C9AF1227E308BCFD198F6D772863C SWAP2 ADD PUSH1 0x40 MLOAD DUP1 SWAP2 SUB SWAP1 LOG2 POP POP JUMP JUMPDEST PUSH1 0x0 PUSH1 0x7 DUP3 PUSH1 0x40 MLOAD PUSH2 0x8DA SWAP2 SWAP1 PUSH2 0x1B36 JUMP JUMPDEST SWAP1 DUP2 MSTORE PUSH1 0x40 MLOAD SWAP1 DUP2 SWAP1 SUB PUSH1 0x20 ADD SWAP1 KECCAK256 SLOAD SWAP3 SWAP2 POP POP JUMP JUMPDEST PUSH2 0x8F8 PUSH2 0xFE2 JUMP JUMPDEST PUSH2 0x902 PUSH1 0x0 PUSH2 0x10AB JUMP JUMPDEST JUMP JUMPDEST CALLER PUSH1 0x0 SWAP1 DUP2 MSTORE PUSH1 0x9 PUSH1 0x20 MSTORE PUSH1 0x40 DUP2 KECCAK256 SLOAD PUSH1 0xFF AND PUSH2 0x968 JUMPI PUSH1 0x40 MLOAD PUSH3 0x461BCD PUSH1 0xE5 SHL DUP2 MSTORE PUSH1 0x20 PUSH1 0x4 DUP3 ADD MSTORE PUSH1 0x17 PUSH1 0x24 DUP3 ADD MSTORE PUSH32 0x4E6F7420617574686F72697A6564206174746573746572000000000000000000 PUSH1 0x44 DUP3 ADD MSTORE PUSH1 0x64 ADD JUMPDEST PUSH1 0x40 MLOAD DUP1 SWAP2 SUB SWAP1 REVERT JUMPDEST PUSH8 0xDE0B6B3A7640000 DUP3 LT ISZERO PUSH2 0x9B6 JUMPI PUSH1 0x40 MLOAD PUSH3 0x461BCD PUSH1 0xE5 SHL DUP2 MSTORE PUSH1 0x20 PUSH1 0x4 DUP3 ADD MSTORE PUSH1 0x13 PUSH1 0x24 DUP3 ADD MSTORE PUSH19 0x53636F72652062656C6F77206D696E696D756D PUSH1 0x68 SHL PUSH1 0x44 DUP3 ADD MSTORE PUSH1 0x64 ADD PUSH2 0x95F JUMP JUMPDEST PUSH9 0x56BC75E2D63100000 DUP3 GT ISZERO PUSH2 0xA07 JUMPI PUSH1 0x40 MLOAD PUSH3 0x461BCD PUSH1 0xE5 SHL DUP2 MSTORE PUSH1 0x20 PUSH1 0x4 DUP3 ADD MSTORE PUSH1 0x15 PUSH1 0x24 DUP3 ADD MSTORE PUSH21 0x53636F72652065786365656473206D6178696D756D PUSH1 0x58 SHL PUSH1 0x44 DUP3 ADD MSTORE PUSH1 0x64 ADD PUSH2 0x95F JUMP JUMPDEST PUSH1 0x0 PUSH2 0xA12 DUP4 PUSH2 0x100F JUMP JUMPDEST SWAP1 POP PUSH1 0x0 PUSH1 0x8 DUP6 PUSH1 0x40 MLOAD PUSH2 0xA26 SWAP2 SWAP1 PUSH2 0x1B36 JUMP JUMPDEST SWAP1 DUP2 MSTORE PUSH1 0x20 ADD PUSH1 0x40 MLOAD DUP1 SWAP2 SUB SWAP1 KECCAK256 DUP1 SLOAD PUSH2 0xA3F SWAP1 PUSH2 0x19C7 JUMP JUMPDEST DUP1 PUSH1 0x1F ADD PUSH1 0x20 DUP1 SWAP2 DIV MUL PUSH1 0x20 ADD PUSH1 0x40 MLOAD SWAP1 DUP2 ADD PUSH1 0x40 MSTORE DUP1 SWAP3 SWAP2 SWAP1 DUP2 DUP2 MSTORE PUSH1 0x20 ADD DUP3 DUP1 SLOAD PUSH2 0xA6B SWAP1 PUSH2 0x19C7 JUMP JUMPDEST DUP1 ISZERO PUSH2 0xAB8 JUMPI DUP1 PUSH1 0x1F LT PUSH2 0xA8D JUMPI PUSH2 0x100 DUP1 DUP4 SLOAD DIV MUL DUP4 MSTORE SWAP2 PUSH1 0x20 ADD SWAP2 PUSH2 0xAB8 JUMP JUMPDEST DUP3 ADD SWAP2 SWAP1 PUSH1 0x0 MSTORE PUSH1 0x20 PUSH1 0x0 KECCAK256 SWAP1 JUMPDEST DUP2 SLOAD DUP2 MSTORE SWAP1 PUSH1 0x1 ADD SWAP1 PUSH1 0x20 ADD DUP1 DUP4 GT PUSH2 0xA9B JUMPI DUP3 SWAP1 SUB PUSH1 0x1F AND DUP3 ADD SWAP2 JUMPDEST POP POP POP POP POP SWAP1 POP PUSH1 0x0 PUSH1 0x7 DUP3 PUSH1 0x40 MLOAD PUSH2 0xAD1 SWAP2 SWAP1 PUSH2 0x1B36 JUMP JUMPDEST SWAP1 DUP2 MSTORE PUSH1 0x20 ADD PUSH1 0x40 MLOAD DUP1 SWAP2 SUB SWAP1 KECCAK256 PUSH1 0x0 ADD SLOAD SWAP1 POP DUP1 PUSH1 0x0 SUB PUSH2 0xAF8 JUMPI POP PUSH8 0xDE0B6B3A7640000 JUMPDEST PUSH8 0xDE0B6B3A7640000 PUSH2 0xB0B DUP3 DUP6 PUSH2 0x1B68 JUMP JUMPDEST PUSH2 0xB15 SWAP2 SWAP1 PUSH2 0x1B95 JUMP JUMPDEST SWAP4 POP PUSH1 0x40 MLOAD DUP1 PUSH1 0x80 ADD PUSH1 0x40 MSTORE DUP1 DUP7 DUP2 MSTORE PUSH1 0x20 ADD TIMESTAMP DUP2 MSTORE PUSH1 0x20 ADD DUP4 DUP2 MSTORE PUSH1 0x20 ADD DUP6 DUP2 MSTORE POP PUSH1 0x6 DUP8 PUSH1 0x40 MLOAD PUSH2 0xB48 SWAP2 SWAP1 PUSH2 0x1B36 JUMP JUMPDEST SWAP1 DUP2 MSTORE PUSH1 0x40 DUP1 MLOAD PUSH1 0x20 SWAP3 DUP2 SWAP1 SUB DUP4 ADD SWAP1 KECCAK256 DUP4 MLOAD DUP2 SSTORE SWAP2 DUP4 ADD MLOAD PUSH1 0x1 DUP4 ADD SSTORE DUP3 ADD MLOAD PUSH1 0x2 DUP3 ADD SWAP1 PUSH2 0xB78 SWAP1 DUP3 PUSH2 0x1A51 JUMP JUMPDEST POP PUSH1 0x60 SWAP2 SWAP1 SWAP2 ADD MLOAD PUSH1 0x3 SWAP1 SWAP2 ADD SSTORE PUSH1 0xA DUP1 SLOAD SWAP1 PUSH1 0x0 PUSH2 0xB96 DUP4 PUSH2 0x1BA9 JUMP JUMPDEST SWAP2 SWAP1 POP SSTORE POP PUSH2 0xBA5 CALLER DUP6 PUSH2 0x10FD JUMP JUMPDEST DUP6 PUSH1 0x40 MLOAD PUSH2 0xBB3 SWAP2 SWAP1 PUSH2 0x1B36 JUMP JUMPDEST PUSH1 0x40 MLOAD DUP1 SWAP2 SUB SWAP1 KECCAK256 PUSH32 0x7E8A32F20EE42A50829133712D0CC523897C3786A90AFA236A499291A092C542 DUP7 DUP7 DUP6 TIMESTAMP PUSH1 0x40 MLOAD PUSH2 0xBF0 SWAP5 SWAP4 SWAP3 SWAP2 SWAP1 PUSH2 0x17C9 JUMP JUMPDEST PUSH1 0x40 MLOAD DUP1 SWAP2 SUB SWAP1 LOG2 POP POP POP SWAP3 SWAP2 POP POP JUMP JUMPDEST PUSH2 0xC09 PUSH2 0xFE2 JUMP JUMPDEST PUSH2 0xC13 DUP3 DUP3 PUSH2 0x1133 JUMP JUMPDEST POP POP JUMP JUMPDEST PUSH1 0x60 PUSH1 0x4 DUP1 SLOAD PUSH2 0x4E7 SWAP1 PUSH2 0x19C7 JUMP JUMPDEST PUSH1 0x0 CALLER PUSH2 0x578 DUP2 DUP6 DUP6 PUSH2 0xF83 JUMP JUMPDEST PUSH1 0xB DUP1 SLOAD PUSH2 0xC41 SWAP1 PUSH2 0x19C7 JUMP JUMPDEST DUP1 PUSH1 0x1F ADD PUSH1 0x20 DUP1 SWAP2 DIV MUL PUSH1 0x20 ADD PUSH1 0x40 MLOAD SWAP1 DUP2 ADD PUSH1 0x40 MSTORE DUP1 SWAP3 SWAP2 SWAP1 DUP2 DUP2 MSTORE PUSH1 0x20 ADD DUP3 DUP1 SLOAD PUSH2 0xC6D SWAP1 PUSH2 0x19C7 JUMP JUMPDEST DUP1 ISZERO PUSH2 0xCBA JUMPI DUP1 PUSH1 0x1F LT PUSH2 0xC8F JUMPI PUSH2 0x100 DUP1 DUP4 SLOAD DIV MUL DUP4 MSTORE SWAP2 PUSH1 0x20 ADD SWAP2 PUSH2 0xCBA JUMP JUMPDEST DUP3 ADD SWAP2 SWAP1 PUSH1 0x0 MSTORE PUSH1 0x20 PUSH1 0x0 KECCAK256 SWAP1 JUMPDEST DUP2 SLOAD DUP2 MSTORE SWAP1 PUSH1 0x1 ADD SWAP1 PUSH1 0x20 ADD DUP1 DUP4 GT PUSH2 0xC9D JUMPI DUP3 SWAP1 SUB PUSH1 0x1F AND DUP3 ADD SWAP2 JUMPDEST POP POP POP POP POP DUP2 JUMP JUMPDEST PUSH1 0x60 PUSH1 0x8 DUP3 PUSH1 0x40 MLOAD PUSH2 0xCD4 SWAP2 SWAP1 PUSH2 0x1B36 JUMP JUMPDEST SWAP1 DUP2 MSTORE PUSH1 0x20 ADD PUSH1 0x40 MLOAD DUP1 SWAP2 SUB SWAP1 KECCAK256 DUP1 SLOAD PUSH2 0xCED SWAP1 PUSH2 0x19C7 JUMP JUMPDEST DUP1 PUSH1 0x1F ADD PUSH1 0x20 DUP1 SWAP2 DIV MUL PUSH1 0x20 ADD PUSH1 0x40 MLOAD SWAP1 DUP2 ADD PUSH1 0x40 MSTORE DUP1 SWAP3 SWAP2 SWAP1 DUP2 DUP2 MSTORE PUSH1 0x20 ADD DUP3 DUP1 SLOAD PUSH2 0xD19 SWAP1 PUSH2 0x19C7 JUMP JUMPDEST DUP1 ISZERO PUSH2 0xD66 JUMPI DUP1 PUSH1 0x1F LT PUSH2 0xD3B JUMPI PUSH2 0x100 DUP1 DUP4 SLOAD DIV MUL DUP4 MSTORE SWAP2 PUSH1 0x20 ADD SWAP2 PUSH2 0xD66 JUMP JUMPDEST DUP3 ADD SWAP2 SWAP1 PUSH1 0x0 MSTORE PUSH1 0x20 PUSH1 0x0 KECCAK256 SWAP1 JUMPDEST DUP2 SLOAD DUP2 MSTORE SWAP1 PUSH1 0x1 ADD SWAP1 PUSH1 0x20 ADD DUP1 DUP4 GT PUSH2 0xD49 JUMPI DUP3 SWAP1 SUB PUSH1 0x1F AND DUP3 ADD SWAP2 JUMPDEST POP POP POP POP POP SWAP1 POP SWAP2 SWAP1 POP JUMP JUMPDEST PUSH2 0xD9D PUSH1 0x40 MLOAD DUP1 PUSH1 0x80 ADD PUSH1 0x40 MSTORE DUP1 PUSH1 0x0 DUP2 MSTORE PUSH1 0x20 ADD PUSH1 0x0 DUP2 MSTORE PUSH1 0x20 ADD PUSH1 0x60 DUP2 MSTORE PUSH1 0x20 ADD PUSH1 0x0 DUP2 MSTORE POP SWAP1 JUMP JUMPDEST PUSH1 0x6 DUP3 PUSH1 0x40 MLOAD PUSH2 0xDAD SWAP2 SWAP1 PUSH2 0x1B36 JUMP JUMPDEST SWAP1 DUP2 MSTORE PUSH1 0x20 ADD PUSH1 0x40 MLOAD DUP1 SWAP2 SUB SWAP1 KECCAK256 PUSH1 0x40 MLOAD DUP1 PUSH1 0x80 ADD PUSH1 0x40 MSTORE SWAP1 DUP2 PUSH1 0x0 DUP3 ADD SLOAD DUP2 MSTORE PUSH1 0x20 ADD PUSH1 0x1 DUP3 ADD SLOAD DUP2 MSTORE PUSH1 0x20 ADD PUSH1 0x2 DUP3 ADD DUP1 SLOAD PUSH2 0xDEA SWAP1 PUSH2 0x19C7 JUMP JUMPDEST DUP1 PUSH1 0x1F ADD PUSH1 0x20 DUP1 SWAP2 DIV MUL PUSH1 0x20 ADD PUSH1 0x40 MLOAD SWAP1 DUP2 ADD PUSH1 0x40 MSTORE DUP1 SWAP3 SWAP2 SWAP1 DUP2 DUP2 MSTORE PUSH1 0x20 ADD DUP3 DUP1 SLOAD PUSH2 0xE16 SWAP1 PUSH2 0x19C7 JUMP JUMPDEST DUP1 ISZERO PUSH2 0xE63 JUMPI DUP1 PUSH1 0x1F LT PUSH2 0xE38 JUMPI PUSH2 0x100 DUP1 DUP4 SLOAD DIV MUL DUP4 MSTORE SWAP2 PUSH1 0x20 ADD SWAP2 PUSH2 0xE63 JUMP JUMPDEST DUP3 ADD SWAP2 SWAP1 PUSH1 0x0 MSTORE PUSH1 0x20 PUSH1 0x0 KECCAK256 SWAP1 JUMPDEST DUP2 SLOAD DUP2 MSTORE SWAP1 PUSH1 0x1 ADD SWAP1 PUSH1 0x20 ADD DUP1 DUP4 GT PUSH2 0xE46 JUMPI DUP3 SWAP1 SUB PUSH1 0x1F AND DUP3 ADD SWAP2 JUMPDEST POP POP POP POP POP DUP2 MSTORE PUSH1 0x20 ADD PUSH1 0x3 DUP3 ADD SLOAD DUP2 MSTORE POP POP SWAP1 POP SWAP2 SWAP1 POP JUMP JUMPDEST PUSH2 0xE85 PUSH2 0xFE2 JUMP JUMPDEST PUSH2 0xE90 DUP4 DUP4 DUP4 PUSH2 0x11B7 JUMP JUMPDEST POP POP POP JUMP JUMPDEST PUSH2 0xE9D PUSH2 0xFE2 JUMP JUMPDEST PUSH1 0x1 PUSH1 0x1 PUSH1 0xA0 SHL SUB DUP2 AND PUSH2 0xEC7 JUMPI PUSH1 0x40 MLOAD PUSH4 0x1E4FBDF7 PUSH1 0xE0 SHL DUP2 MSTORE PUSH1 0x0 PUSH1 0x4 DUP3 ADD MSTORE PUSH1 0x24 ADD PUSH2 0x95F JUMP JUMPDEST PUSH2 0xED0 DUP2 PUSH2 0x10AB JUMP JUMPDEST POP JUMP JUMPDEST DUP1 MLOAD PUSH1 0x20 DUP2 DUP4 ADD DUP2 ADD DUP1 MLOAD PUSH1 0x8 DUP3 MSTORE SWAP3 DUP3 ADD SWAP2 SWAP1 SWAP4 ADD KECCAK256 SWAP2 MSTORE DUP1 SLOAD PUSH2 0xC41 SWAP1 PUSH2 0x19C7 JUMP JUMPDEST PUSH2 0xE90 DUP4 DUP4 DUP4 PUSH1 0x1 PUSH2 0x12F8 JUMP JUMPDEST PUSH1 0x1 PUSH1 0x1 PUSH1 0xA0 SHL SUB DUP4 DUP2 AND PUSH1 0x0 SWAP1 DUP2 MSTORE PUSH1 0x1 PUSH1 0x20 SWAP1 DUP2 MSTORE PUSH1 0x40 DUP1 DUP4 KECCAK256 SWAP4 DUP7 AND DUP4 MSTORE SWAP3 SWAP1 MSTORE KECCAK256 SLOAD PUSH1 0x0 NOT DUP2 LT ISZERO PUSH2 0xF7D JUMPI DUP2 DUP2 LT ISZERO PUSH2 0xF6E JUMPI PUSH1 0x40 MLOAD PUSH4 0x7DC7A0D9 PUSH1 0xE1 SHL DUP2 MSTORE PUSH1 0x1 PUSH1 0x1 PUSH1 0xA0 SHL SUB DUP5 AND PUSH1 0x4 DUP3 ADD MSTORE PUSH1 0x24 DUP2 ADD DUP3 SWAP1 MSTORE PUSH1 0x44 DUP2 ADD DUP4 SWAP1 MSTORE PUSH1 0x64 ADD PUSH2 0x95F JUMP JUMPDEST PUSH2 0xF7D DUP5 DUP5 DUP5 DUP5 SUB PUSH1 0x0 PUSH2 0x12F8 JUMP JUMPDEST POP POP POP POP JUMP JUMPDEST PUSH1 0x1 PUSH1 0x1 PUSH1 0xA0 SHL SUB DUP4 AND PUSH2 0xFAD JUMPI PUSH1 0x40 MLOAD PUSH4 0x4B637E8F PUSH1 0xE1 SHL DUP2 MSTORE PUSH1 0x0 PUSH1 0x4 DUP3 ADD MSTORE PUSH1 0x24 ADD PUSH2 0x95F JUMP JUMPDEST PUSH1 0x1 PUSH1 0x1 PUSH1 0xA0 SHL SUB DUP3 AND PUSH2 0xFD7 JUMPI PUSH1 0x40 MLOAD PUSH4 0xEC442F05 PUSH1 0xE0 SHL DUP2 MSTORE PUSH1 0x0 PUSH1 0x4 DUP3 ADD MSTORE PUSH1 0x24 ADD PUSH2 0x95F JUMP JUMPDEST PUSH2 0xE90 DUP4 DUP4 DUP4 PUSH2 0x13CD JUMP JUMPDEST PUSH1 0x5 SLOAD PUSH1 0x1 PUSH1 0x1 PUSH1 0xA0 SHL SUB AND CALLER EQ PUSH2 0x902 JUMPI PUSH1 0x40 MLOAD PUSH4 0x118CDAA7 PUSH1 0xE0 SHL DUP2 MSTORE CALLER PUSH1 0x4 DUP3 ADD MSTORE PUSH1 0x24 ADD PUSH2 0x95F JUMP JUMPDEST PUSH1 0x0 DUP2 DUP2 PUSH8 0xDE0B6B3A7640000 PUSH2 0x102F PUSH9 0x2B5E3AF16B1880000 DUP5 PUSH2 0x1BC2 JUMP JUMPDEST PUSH2 0x103F PUSH7 0xB1A2BC2EC50000 PUSH2 0x1BE9 JUMP JUMPDEST PUSH2 0x1049 SWAP2 SWAP1 PUSH2 0x1C05 JUMP JUMPDEST PUSH2 0x1053 SWAP2 SWAP1 PUSH2 0x1C35 JUMP JUMPDEST SWAP1 POP PUSH1 0x0 PUSH2 0x1060 DUP3 PUSH2 0x14F7 JUMP JUMPDEST SWAP1 POP PUSH1 0x0 PUSH2 0x1076 DUP3 PUSH8 0xDE0B6B3A7640000 PUSH2 0x1C63 JUMP JUMPDEST SWAP1 POP PUSH1 0x0 DUP2 PUSH2 0x1096 PUSH9 0x3635C9ADC5DEA00000 PUSH8 0xDE0B6B3A7640000 PUSH2 0x1B68 JUMP JUMPDEST PUSH2 0x10A0 SWAP2 SWAP1 PUSH2 0x1B95 JUMP JUMPDEST SWAP8 SWAP7 POP POP POP POP POP POP POP JUMP JUMPDEST PUSH1 0x5 DUP1 SLOAD PUSH1 0x1 PUSH1 0x1 PUSH1 0xA0 SHL SUB DUP4 DUP2 AND PUSH1 0x1 PUSH1 0x1 PUSH1 0xA0 SHL SUB NOT DUP4 AND DUP2 OR SWAP1 SWAP4 SSTORE PUSH1 0x40 MLOAD SWAP2 AND SWAP2 SWAP1 DUP3 SWAP1 PUSH32 0x8BE0079C531659141344CD1FD0A4F28419497F9722A3DAAFE3B4186F6B6457E0 SWAP1 PUSH1 0x0 SWAP1 LOG3 POP POP JUMP JUMPDEST PUSH1 0x1 PUSH1 0x1 PUSH1 0xA0 SHL SUB DUP3 AND PUSH2 0x1127 JUMPI PUSH1 0x40 MLOAD PUSH4 0xEC442F05 PUSH1 0xE0 SHL DUP2 MSTORE PUSH1 0x0 PUSH1 0x4 DUP3 ADD MSTORE PUSH1 0x24 ADD PUSH2 0x95F JUMP JUMPDEST PUSH2 0xC13 PUSH1 0x0 DUP4 DUP4 PUSH2 0x13CD JUMP JUMPDEST DUP1 PUSH1 0x8 DUP4 PUSH1 0x40 MLOAD PUSH2 0x1144 SWAP2 SWAP1 PUSH2 0x1B36 JUMP JUMPDEST SWAP1 DUP2 MSTORE PUSH1 0x20 ADD PUSH1 0x40 MLOAD DUP1 SWAP2 SUB SWAP1 KECCAK256 SWAP1 DUP2 PUSH2 0x115E SWAP2 SWAP1 PUSH2 0x1A51 JUMP JUMPDEST POP DUP1 PUSH1 0x40 MLOAD PUSH2 0x116D SWAP2 SWAP1 PUSH2 0x1B36 JUMP JUMPDEST PUSH1 0x40 MLOAD DUP1 SWAP2 SUB SWAP1 KECCAK256 DUP3 PUSH1 0x40 MLOAD PUSH2 0x1183 SWAP2 SWAP1 PUSH2 0x1B36 JUMP JUMPDEST PUSH1 0x40 MLOAD SWAP1 DUP2 SWAP1 SUB DUP2 KECCAK256 SWAP1 PUSH32 0xA64CB0E2BF835E873427D2430F7C485BAF053CDAF5B601DB9989FBC3342A3AFE SWAP1 PUSH1 0x0 SWAP1 LOG3 POP POP JUMP JUMPDEST PUSH8 0x6F05B59D3B20000 DUP3 LT ISZERO PUSH2 0x1204 JUMPI PUSH1 0x40 MLOAD PUSH3 0x461BCD PUSH1 0xE5 SHL DUP2 MSTORE PUSH1 0x20 PUSH1 0x4 DUP3 ADD MSTORE PUSH1 0x12 PUSH1 0x24 DUP3 ADD MSTORE PUSH18 0x4D756C7469706C69657220746F6F206C6F77 PUSH1 0x70 SHL PUSH1 0x44 DUP3 ADD MSTORE PUSH1 0x64 ADD PUSH2 0x95F JUMP JUMPDEST PUSH8 0x4563918244F40000 DUP3 GT ISZERO PUSH2 0x1252 JUMPI PUSH1 0x40 MLOAD PUSH3 0x461BCD PUSH1 0xE5 SHL DUP2 MSTORE PUSH1 0x20 PUSH1 0x4 DUP3 ADD MSTORE PUSH1 0x13 PUSH1 0x24 DUP3 ADD MSTORE PUSH19 0x9AEAD8E8D2E0D8D2CAE440E8DEDE40D0D2CED PUSH1 0x6B SHL PUSH1 0x44 DUP3 ADD MSTORE PUSH1 0x64 ADD PUSH2 0x95F JUMP JUMPDEST PUSH1 0x40 MLOAD DUP1 PUSH1 0x40 ADD PUSH1 0x40 MSTORE DUP1 DUP4 DUP2 MSTORE PUSH1 0x20 ADD DUP3 ISZERO ISZERO DUP2 MSTORE POP PUSH1 0x7 DUP5 PUSH1 0x40 MLOAD PUSH2 0x1279 SWAP2 SWAP1 PUSH2 0x1B36 JUMP JUMPDEST SWAP1 DUP2 MSTORE PUSH1 0x40 MLOAD PUSH1 0x20 SWAP2 DUP2 SWAP1 SUB DUP3 ADD DUP2 KECCAK256 DUP4 MLOAD DUP2 SSTORE SWAP3 SWAP1 SWAP2 ADD MLOAD PUSH1 0x1 SWAP1 SWAP3 ADD DUP1 SLOAD PUSH1 0xFF NOT AND SWAP3 ISZERO ISZERO SWAP3 SWAP1 SWAP3 OR SWAP1 SWAP2 SSTORE PUSH2 0x12B2 SWAP1 DUP5 SWAP1 PUSH2 0x1B36 JUMP JUMPDEST PUSH1 0x40 DUP1 MLOAD SWAP2 DUP3 SWAP1 SUB DUP3 KECCAK256 DUP5 DUP4 MSTORE DUP4 ISZERO ISZERO PUSH1 0x20 DUP5 ADD MSTORE SWAP2 PUSH32 0xA8B5A8ED6A560CB1E31657E5731728B3B3FE41A0A528C70E847939734C4DF540 SWAP2 ADD PUSH1 0x40 MLOAD DUP1 SWAP2 SUB SWAP1 LOG2 POP POP POP JUMP JUMPDEST PUSH1 0x1 PUSH1 0x1 PUSH1 0xA0 SHL SUB DUP5 AND PUSH2 0x1322 JUMPI PUSH1 0x40 MLOAD PUSH4 0xE602DF05 PUSH1 0xE0 SHL DUP2 MSTORE PUSH1 0x0 PUSH1 0x4 DUP3 ADD MSTORE PUSH1 0x24 ADD PUSH2 0x95F JUMP JUMPDEST PUSH1 0x1 PUSH1 0x1 PUSH1 0xA0 SHL SUB DUP4 AND PUSH2 0x134C JUMPI PUSH1 0x40 MLOAD PUSH4 0x4A1406B1 PUSH1 0xE1 SHL DUP2 MSTORE PUSH1 0x0 PUSH1 0x4 DUP3 ADD MSTORE PUSH1 0x24 ADD PUSH2 0x95F JUMP JUMPDEST PUSH1 0x1 PUSH1 0x1 PUSH1 0xA0 SHL SUB DUP1 DUP6 AND PUSH1 0x0 SWAP1 DUP2 MSTORE PUSH1 0x1 PUSH1 0x20 SWAP1 DUP2 MSTORE PUSH1 0x40 DUP1 DUP4 KECCAK256 SWAP4 DUP8 AND DUP4 MSTORE SWAP3 SWAP1 MSTORE KECCAK256 DUP3 SWAP1 SSTORE DUP1 ISZERO PUSH2 0xF7D JUMPI DUP3 PUSH1 0x1 PUSH1 0x1 PUSH1 0xA0 SHL SUB AND DUP5 PUSH1 0x1 PUSH1 0x1 PUSH1 0xA0 SHL SUB AND PUSH32 0x8C5BE1E5EBEC7D5BD14F71427D1E84F3DD0314C0F7B2291E5B200AC8C7C3B925 DUP5 PUSH1 0x40 MLOAD PUSH2 0x13BF SWAP2 DUP2 MSTORE PUSH1 0x20 ADD SWAP1 JUMP JUMPDEST PUSH1 0x40 MLOAD DUP1 SWAP2 SUB SWAP1 LOG3 POP POP POP POP JUMP JUMPDEST PUSH1 0x1 PUSH1 0x1 PUSH1 0xA0 SHL SUB DUP4 AND PUSH2 0x13F8 JUMPI DUP1 PUSH1 0x2 PUSH1 0x0 DUP3 DUP3 SLOAD PUSH2 0x13ED SWAP2 SWAP1 PUSH2 0x1C63 JUMP JUMPDEST SWAP1 SWAP2 SSTORE POP PUSH2 0x146A SWAP1 POP JUMP JUMPDEST PUSH1 0x1 PUSH1 0x1 PUSH1 0xA0 SHL SUB DUP4 AND PUSH1 0x0 SWAP1 DUP2 MSTORE PUSH1 0x20 DUP2 SWAP1 MSTORE PUSH1 0x40 SWAP1 KECCAK256 SLOAD DUP2 DUP2 LT ISZERO PUSH2 0x144B JUMPI PUSH1 0x40 MLOAD PUSH4 0x391434E3 PUSH1 0xE2 SHL DUP2 MSTORE PUSH1 0x1 PUSH1 0x1 PUSH1 0xA0 SHL SUB DUP6 AND PUSH1 0x4 DUP3 ADD MSTORE PUSH1 0x24 DUP2 ADD DUP3 SWAP1 MSTORE PUSH1 0x44 DUP2 ADD DUP4 SWAP1 MSTORE PUSH1 0x64 ADD PUSH2 0x95F JUMP JUMPDEST PUSH1 0x1 PUSH1 0x1 PUSH1 0xA0 SHL SUB DUP5 AND PUSH1 0x0 SWAP1 DUP2 MSTORE PUSH1 0x20 DUP2 SWAP1 MSTORE PUSH1 0x40 SWAP1 KECCAK256 SWAP1 DUP3 SWAP1 SUB SWAP1 SSTORE JUMPDEST PUSH1 0x1 PUSH1 0x1 PUSH1 0xA0 SHL SUB DUP3 AND PUSH2 0x1486 JUMPI PUSH1 0x2 DUP1 SLOAD DUP3 SWAP1 SUB SWAP1 SSTORE PUSH2 0x14A5 JUMP JUMPDEST PUSH1 0x1 PUSH1 0x1 PUSH1 0xA0 SHL SUB DUP3 AND PUSH1 0x0 SWAP1 DUP2 MSTORE PUSH1 0x20 DUP2 SWAP1 MSTORE PUSH1 0x40 SWAP1 KECCAK256 DUP1 SLOAD DUP3 ADD SWAP1 SSTORE JUMPDEST DUP2 PUSH1 0x1 PUSH1 0x1 PUSH1 0xA0 SHL SUB AND DUP4 PUSH1 0x1 PUSH1 0x1 PUSH1 0xA0 SHL SUB AND PUSH32 0xDDF252AD1BE2C89B69C2B068FC378DAA952BA7F163C4A11628F55A4DF523B3EF DUP4 PUSH1 0x40 MLOAD PUSH2 0x14EA SWAP2 DUP2 MSTORE PUSH1 0x20 ADD SWAP1 JUMP JUMPDEST PUSH1 0x40 MLOAD DUP1 SWAP2 SUB SWAP1 LOG3 POP POP POP JUMP JUMPDEST PUSH1 0x0 PUSH9 0x1158E460913D00000 DUP3 SGT ISZERO PUSH2 0x1517 JUMPI PUSH2 0x57E PUSH1 0x2 PUSH1 0x0 NOT PUSH2 0x1B95 JUMP JUMPDEST PUSH9 0x1158E460913CFFFFF NOT DUP3 SLT ISZERO PUSH2 0x1531 JUMPI POP PUSH1 0x0 SWAP2 SWAP1 POP JUMP JUMPDEST PUSH1 0x0 DUP3 SLT PUSH2 0x158A JUMPI DUP2 PUSH1 0x0 PUSH8 0xDE0B6B3A7640000 PUSH2 0x154F DUP4 DUP1 PUSH2 0x1B68 JUMP JUMPDEST PUSH2 0x1559 SWAP2 SWAP1 PUSH2 0x1B95 JUMP JUMPDEST SWAP1 POP PUSH2 0x1566 PUSH1 0x2 DUP3 PUSH2 0x1B95 JUMP JUMPDEST PUSH2 0x1578 DUP4 PUSH8 0xDE0B6B3A7640000 PUSH2 0x1C63 JUMP JUMPDEST PUSH2 0x1582 SWAP2 SWAP1 PUSH2 0x1C63 JUMP JUMPDEST SWAP5 SWAP4 POP POP POP POP JUMP JUMPDEST PUSH1 0x0 PUSH2 0x1595 DUP4 PUSH2 0x1BE9 JUMP JUMPDEST SWAP1 POP PUSH1 0x0 PUSH8 0xDE0B6B3A7640000 PUSH2 0x15AC DUP4 DUP1 PUSH2 0x1B68 JUMP JUMPDEST PUSH2 0x15B6 SWAP2 SWAP1 PUSH2 0x1B95 JUMP JUMPDEST SWAP1 POP PUSH1 0x0 PUSH2 0x15C5 PUSH1 0x2 DUP4 PUSH2 0x1B95 JUMP JUMPDEST PUSH2 0x15D7 DUP5 PUSH8 0xDE0B6B3A7640000 PUSH2 0x1C63 JUMP JUMPDEST PUSH2 0x15E1 SWAP2 SWAP1 PUSH2 0x1C63 JUMP JUMPDEST SWAP1 POP PUSH2 0x15FC DUP2 PUSH15 0xC097CE7BC90715B34B9F1000000000 PUSH2 0x1B95 JUMP JUMPDEST SWAP6 SWAP5 POP POP POP POP POP JUMP JUMPDEST SWAP2 SWAP1 POP JUMP JUMPDEST PUSH1 0x0 JUMPDEST DUP4 DUP2 LT ISZERO PUSH2 0x1625 JUMPI DUP2 DUP2 ADD MLOAD DUP4 DUP3 ADD MSTORE PUSH1 0x20 ADD PUSH2 0x160D JUMP JUMPDEST POP POP PUSH1 0x0 SWAP2 ADD MSTORE JUMP JUMPDEST PUSH1 0x0 DUP2 MLOAD DUP1 DUP5 MSTORE PUSH2 0x1646 DUP2 PUSH1 0x20 DUP7 ADD PUSH1 0x20 DUP7 ADD PUSH2 0x160A JUMP JUMPDEST PUSH1 0x1F ADD PUSH1 0x1F NOT AND SWAP3 SWAP1 SWAP3 ADD PUSH1 0x20 ADD SWAP3 SWAP2 POP POP JUMP JUMPDEST PUSH1 0x20 DUP2 MSTORE PUSH1 0x0 PUSH2 0x166D PUSH1 0x20 DUP4 ADD DUP5 PUSH2 0x162E JUMP JUMPDEST SWAP4 SWAP3 POP POP POP JUMP JUMPDEST DUP1 CALLDATALOAD PUSH1 0x1 PUSH1 0x1 PUSH1 0xA0 SHL SUB DUP2 AND DUP2 EQ PUSH2 0x1605 JUMPI PUSH1 0x0 DUP1 REVERT JUMPDEST PUSH1 0x0 DUP1 PUSH1 0x40 DUP4 DUP6 SUB SLT ISZERO PUSH2 0x169E JUMPI PUSH1 0x0 DUP1 REVERT JUMPDEST PUSH2 0x16A7 DUP4 PUSH2 0x1674 JUMP JUMPDEST SWAP5 PUSH1 0x20 SWAP4 SWAP1 SWAP4 ADD CALLDATALOAD SWAP4 POP POP POP JUMP JUMPDEST PUSH1 0x0 DUP1 PUSH1 0x0 PUSH1 0x60 DUP5 DUP7 SUB SLT ISZERO PUSH2 0x16CA JUMPI PUSH1 0x0 DUP1 REVERT JUMPDEST PUSH2 0x16D3 DUP5 PUSH2 0x1674 JUMP JUMPDEST SWAP3 POP PUSH2 0x16E1 PUSH1 0x20 DUP6 ADD PUSH2 0x1674 JUMP JUMPDEST SWAP2 POP PUSH1 0x40 DUP5 ADD CALLDATALOAD SWAP1 POP SWAP3 POP SWAP3 POP SWAP3 JUMP JUMPDEST PUSH4 0x4E487B71 PUSH1 0xE0 SHL PUSH1 0x0 MSTORE PUSH1 0x41 PUSH1 0x4 MSTORE PUSH1 0x24 PUSH1 0x0 REVERT JUMPDEST PUSH1 0x0 DUP3 PUSH1 0x1F DUP4 ADD SLT PUSH2 0x1718 JUMPI PUSH1 0x0 DUP1 REVERT JUMPDEST DUP2 CALLDATALOAD PUSH8 0xFFFFFFFFFFFFFFFF DUP1 DUP3 GT ISZERO PUSH2 0x1733 JUMPI PUSH2 0x1733 PUSH2 0x16F1 JUMP JUMPDEST PUSH1 0x40 MLOAD PUSH1 0x1F DUP4 ADD PUSH1 0x1F NOT SWAP1 DUP2 AND PUSH1 0x3F ADD AND DUP2 ADD SWAP1 DUP3 DUP3 GT DUP2 DUP4 LT OR ISZERO PUSH2 0x175B JUMPI PUSH2 0x175B PUSH2 0x16F1 JUMP JUMPDEST DUP2 PUSH1 0x40 MSTORE DUP4 DUP2 MSTORE DUP7 PUSH1 0x20 DUP6 DUP9 ADD ADD GT ISZERO PUSH2 0x1774 JUMPI PUSH1 0x0 DUP1 REVERT JUMPDEST DUP4 PUSH1 0x20 DUP8 ADD PUSH1 0x20 DUP4 ADD CALLDATACOPY PUSH1 0x0 PUSH1 0x20 DUP6 DUP4 ADD ADD MSTORE DUP1 SWAP5 POP POP POP POP POP SWAP3 SWAP2 POP POP JUMP JUMPDEST PUSH1 0x0 PUSH1 0x20 DUP3 DUP5 SUB SLT ISZERO PUSH2 0x17A6 JUMPI PUSH1 0x0 DUP1 REVERT JUMPDEST DUP2 CALLDATALOAD PUSH8 0xFFFFFFFFFFFFFFFF DUP2 GT ISZERO PUSH2 0x17BD JUMPI PUSH1 0x0 DUP1 REVERT JUMPDEST PUSH2 0x1582 DUP5 DUP3 DUP6 ADD PUSH2 0x1707 JUMP JUMPDEST DUP5 DUP2 MSTORE DUP4 PUSH1 0x20 DUP3 ADD MSTORE PUSH1 0x80 PUSH1 0x40 DUP3 ADD MSTORE PUSH1 0x0 PUSH2 0x17E8 PUSH1 0x80 DUP4 ADD DUP6 PUSH2 0x162E JUMP JUMPDEST SWAP1 POP DUP3 PUSH1 0x60 DUP4 ADD MSTORE SWAP6 SWAP5 POP POP POP POP POP JUMP JUMPDEST PUSH1 0x0 DUP1 PUSH1 0x40 DUP4 DUP6 SUB SLT ISZERO PUSH2 0x180C JUMPI PUSH1 0x0 DUP1 REVERT JUMPDEST DUP3 CALLDATALOAD PUSH8 0xFFFFFFFFFFFFFFFF DUP2 GT ISZERO PUSH2 0x1823 JUMPI PUSH1 0x0 DUP1 REVERT JUMPDEST PUSH2 0x182F DUP6 DUP3 DUP7 ADD PUSH2 0x1707 JUMP JUMPDEST SWAP6 PUSH1 0x20 SWAP5 SWAP1 SWAP5 ADD CALLDATALOAD SWAP5 POP POP POP POP JUMP JUMPDEST DUP1 CALLDATALOAD DUP1 ISZERO ISZERO DUP2 EQ PUSH2 0x1605 JUMPI PUSH1 0x0 DUP1 REVERT JUMPDEST PUSH1 0x0 DUP1 PUSH1 0x40 DUP4 DUP6 SUB SLT ISZERO PUSH2 0x1861 JUMPI PUSH1 0x0 DUP1 REVERT JUMPDEST PUSH2 0x186A DUP4 PUSH2 0x1674 JUMP JUMPDEST SWAP2 POP PUSH2 0x1878 PUSH1 0x20 DUP5 ADD PUSH2 0x183E JUMP JUMPDEST SWAP1 POP SWAP3 POP SWAP3 SWAP1 POP JUMP JUMPDEST PUSH1 0x0 PUSH1 0x20 DUP3 DUP5 SUB SLT ISZERO PUSH2 0x1893 JUMPI PUSH1 0x0 DUP1 REVERT JUMPDEST PUSH2 0x166D DUP3 PUSH2 0x1674 JUMP JUMPDEST PUSH1 0x0 DUP1 PUSH1 0x40 DUP4 DUP6 SUB SLT ISZERO PUSH2 0x18AF JUMPI PUSH1 0x0 DUP1 REVERT JUMPDEST DUP3 CALLDATALOAD PUSH8 0xFFFFFFFFFFFFFFFF DUP1 DUP3 GT ISZERO PUSH2 0x18C7 JUMPI PUSH1 0x0 DUP1 REVERT JUMPDEST PUSH2 0x18D3 DUP7 DUP4 DUP8 ADD PUSH2 0x1707 JUMP JUMPDEST SWAP4 POP PUSH1 0x20 DUP6 ADD CALLDATALOAD SWAP2 POP DUP1 DUP3 GT ISZERO PUSH2 0x18E9 JUMPI PUSH1 0x0 DUP1 REVERT JUMPDEST POP PUSH2 0x18F6 DUP6 DUP3 DUP7 ADD PUSH2 0x1707 JUMP JUMPDEST SWAP2 POP POP SWAP3 POP SWAP3 SWAP1 POP JUMP JUMPDEST PUSH1 0x20 DUP2 MSTORE DUP2 MLOAD PUSH1 0x20 DUP3 ADD MSTORE PUSH1 0x20 DUP3 ADD MLOAD PUSH1 0x40 DUP3 ADD MSTORE PUSH1 0x0 PUSH1 0x40 DUP4 ADD MLOAD PUSH1 0x80 PUSH1 0x60 DUP5 ADD MSTORE PUSH2 0x1930 PUSH1 0xA0 DUP5 ADD DUP3 PUSH2 0x162E JUMP JUMPDEST SWAP1 POP PUSH1 0x60 DUP5 ADD MLOAD PUSH1 0x80 DUP5 ADD MSTORE DUP1 SWAP2 POP POP SWAP3 SWAP2 POP POP JUMP JUMPDEST PUSH1 0x0 DUP1 PUSH1 0x40 DUP4 DUP6 SUB SLT ISZERO PUSH2 0x1959 JUMPI PUSH1 0x0 DUP1 REVERT JUMPDEST PUSH2 0x1962 DUP4 PUSH2 0x1674 JUMP JUMPDEST SWAP2 POP PUSH2 0x1878 PUSH1 0x20 DUP5 ADD PUSH2 0x1674 JUMP JUMPDEST PUSH1 0x0 DUP1 PUSH1 0x0 PUSH1 0x60 DUP5 DUP7 SUB SLT ISZERO PUSH2 0x1985 JUMPI PUSH1 0x0 DUP1 REVERT JUMPDEST DUP4 CALLDATALOAD PUSH8 0xFFFFFFFFFFFFFFFF DUP2 GT ISZERO PUSH2 0x199C JUMPI PUSH1 0x0 DUP1 REVERT JUMPDEST PUSH2 0x19A8 DUP7 DUP3 DUP8 ADD PUSH2 0x1707 JUMP JUMPDEST SWAP4 POP POP PUSH1 0x20 DUP5 ADD CALLDATALOAD SWAP2 POP PUSH2 0x19BE PUSH1 0x40 DUP6 ADD PUSH2 0x183E JUMP JUMPDEST SWAP1 POP SWAP3 POP SWAP3 POP SWAP3 JUMP JUMPDEST PUSH1 0x1 DUP2 DUP2 SHR SWAP1 DUP3 AND DUP1 PUSH2 0x19DB JUMPI PUSH1 0x7F DUP3 AND SWAP2 POP JUMPDEST PUSH1 0x20 DUP3 LT DUP2 SUB PUSH2 0x19FB JUMPI PUSH4 0x4E487B71 PUSH1 0xE0 SHL PUSH1 0x0 MSTORE PUSH1 0x22 PUSH1 0x4 MSTORE PUSH1 0x24 PUSH1 0x0 REVERT JUMPDEST POP SWAP2 SWAP1 POP JUMP JUMPDEST PUSH1 0x1F DUP3 GT ISZERO PUSH2 0xE90 JUMPI PUSH1 0x0 DUP2 PUSH1 0x0 MSTORE PUSH1 0x20 PUSH1 0x0 KECCAK256 PUSH1 0x1F DUP6 ADD PUSH1 0x5 SHR DUP2 ADD PUSH1 0x20 DUP7 LT ISZERO PUSH2 0x1A2A JUMPI POP DUP1 JUMPDEST PUSH1 0x1F DUP6 ADD PUSH1 0x5 SHR DUP3 ADD SWAP2 POP JUMPDEST DUP2 DUP2 LT ISZERO PUSH2 0x1A49 JUMPI DUP3 DUP2 SSTORE PUSH1 0x1 ADD PUSH2 0x1A36 JUMP JUMPDEST POP POP POP POP POP POP JUMP JUMPDEST DUP2 MLOAD PUSH8 0xFFFFFFFFFFFFFFFF DUP2 GT ISZERO PUSH2 0x1A6B JUMPI PUSH2 0x1A6B PUSH2 0x16F1 JUMP JUMPDEST PUSH2 0x1A7F DUP2 PUSH2 0x1A79 DUP5 SLOAD PUSH2 0x19C7 JUMP JUMPDEST DUP5 PUSH2 0x1A01 JUMP JUMPDEST PUSH1 0x20 DUP1 PUSH1 0x1F DUP4 GT PUSH1 0x1 DUP2 EQ PUSH2 0x1AB4 JUMPI PUSH1 0x0 DUP5 ISZERO PUSH2 0x1A9C JUMPI POP DUP6 DUP4 ADD MLOAD JUMPDEST PUSH1 0x0 NOT PUSH1 0x3 DUP7 SWAP1 SHL SHR NOT AND PUSH1 0x1 DUP6 SWAP1 SHL OR DUP6 SSTORE PUSH2 0x1A49 JUMP JUMPDEST PUSH1 0x0 DUP6 DUP2 MSTORE PUSH1 0x20 DUP2 KECCAK256 PUSH1 0x1F NOT DUP7 AND SWAP2 JUMPDEST DUP3 DUP2 LT ISZERO PUSH2 0x1AE3 JUMPI DUP9 DUP7 ADD MLOAD DUP3 SSTORE SWAP5 DUP5 ADD SWAP5 PUSH1 0x1 SWAP1 SWAP2 ADD SWAP1 DUP5 ADD PUSH2 0x1AC4 JUMP JUMPDEST POP DUP6 DUP3 LT ISZERO PUSH2 0x1B01 JUMPI DUP8 DUP6 ADD MLOAD PUSH1 0x0 NOT PUSH1 0x3 DUP9 SWAP1 SHL PUSH1 0xF8 AND SHR NOT AND DUP2 SSTORE JUMPDEST POP POP POP POP POP PUSH1 0x1 SWAP1 DUP2 SHL ADD SWAP1 SSTORE POP JUMP JUMPDEST PUSH1 0x40 DUP2 MSTORE PUSH1 0x0 PUSH2 0x1B24 PUSH1 0x40 DUP4 ADD DUP6 PUSH2 0x162E JUMP JUMPDEST DUP3 DUP2 SUB PUSH1 0x20 DUP5 ADD MSTORE PUSH2 0x15FC DUP2 DUP6 PUSH2 0x162E JUMP JUMPDEST PUSH1 0x0 DUP3 MLOAD PUSH2 0x1B48 DUP2 DUP5 PUSH1 0x20 DUP8 ADD PUSH2 0x160A JUMP JUMPDEST SWAP2 SWAP1 SWAP2 ADD SWAP3 SWAP2 POP POP JUMP JUMPDEST PUSH4 0x4E487B71 PUSH1 0xE0 SHL PUSH1 0x0 MSTORE PUSH1 0x11 PUSH1 0x4 MSTORE PUSH1 0x24 PUSH1 0x0 REVERT JUMPDEST DUP1 DUP3 MUL DUP2 ISZERO DUP3 DUP3 DIV DUP5 EQ OR PUSH2 0x57E JUMPI PUSH2 0x57E PUSH2 0x1B52 JUMP JUMPDEST PUSH4 0x4E487B71 PUSH1 0xE0 SHL PUSH1 0x0 MSTORE PUSH1 0x12 PUSH1 0x4 MSTORE PUSH1 0x24 PUSH1 0x0 REVERT JUMPDEST PUSH1 0x0 DUP3 PUSH2 0x1BA4 JUMPI PUSH2 0x1BA4 PUSH2 0x1B7F JUMP JUMPDEST POP DIV SWAP1 JUMP JUMPDEST PUSH1 0x0 PUSH1 0x1 DUP3 ADD PUSH2 0x1BBB JUMPI PUSH2 0x1BBB PUSH2 0x1B52 JUMP JUMPDEST POP PUSH1 0x1 ADD SWAP1 JUMP JUMPDEST DUP2 DUP2 SUB PUSH1 0x0 DUP4 SLT DUP1 ISZERO DUP4 DUP4 SGT AND DUP4 DUP4 SLT DUP3 AND OR ISZERO PUSH2 0x1BE2 JUMPI PUSH2 0x1BE2 PUSH2 0x1B52 JUMP JUMPDEST POP SWAP3 SWAP2 POP POP JUMP JUMPDEST PUSH1 0x0 PUSH1 0x1 PUSH1 0xFF SHL DUP3 ADD PUSH2 0x1BFE JUMPI PUSH2 0x1BFE PUSH2 0x1B52 JUMP JUMPDEST POP PUSH1 0x0 SUB SWAP1 JUMP JUMPDEST DUP1 DUP3 MUL PUSH1 0x0 DUP3 SLT PUSH1 0x1 PUSH1 0xFF SHL DUP5 EQ AND ISZERO PUSH2 0x1C21 JUMPI PUSH2 0x1C21 PUSH2 0x1B52 JUMP JUMPDEST DUP2 DUP2 SDIV DUP4 EQ DUP3 ISZERO OR PUSH2 0x57E JUMPI PUSH2 0x57E PUSH2 0x1B52 JUMP JUMPDEST PUSH1 0x0 DUP3 PUSH2 0x1C44 JUMPI PUSH2 0x1C44 PUSH2 0x1B7F JUMP JUMPDEST PUSH1 0x1 PUSH1 0xFF SHL DUP3 EQ PUSH1 0x0 NOT DUP5 EQ AND ISZERO PUSH2 0x1C5E JUMPI PUSH2 0x1C5E PUSH2 0x1B52 JUMP JUMPDEST POP SDIV SWAP1 JUMP JUMPDEST DUP1 DUP3 ADD DUP1 DUP3 GT ISZERO PUSH2 0x57E JUMPI PUSH2 0x57E PUSH2 0x1B52 JUMP INVALID LOG2 PUSH5 0x6970667358 0x22 SLT KECCAK256 0xEF PREVRANDAO SWAP9 0x29 0xA5 CALLDATALOAD 0xB6 0xB1 0xD2 CHAINID PUSH7 0xEDB3696936814F 0xD2 CODECOPY ADDMOD JUMPI GT ORIGIN DUP14 CODECOPY SWAP1 MCOPY SWAP6 OR 0x25 MUL PUSH5 0x736F6C6343 STOP ADDMOD XOR STOP CALLER "},"methodIdentifiers":{"K()":"a932492f","L()":"9f13f76d","MAX_SCORE()":"27ff6223","MIN_SCORE()":"40b89270","X0()":"975dceff","allowance(address,address)":"dd62ed3e","approve(address,uint256)":"095ea7b3","assignSentinel(string,string)":"91934aa0","attest(string,uint256)":"8522aeda","attestations(string)":"249d026b","authorizedAttesters(address)":"d1b0a19e","balanceOf(address)":"70a08231","cathedrals(string)":"3db9c7e7","configureCathedral(string,uint256,bool)":"e60763f6","currentCycle()":"bab2f552","decimals()":"313ce567","getAttestation(string)":"d607daf6","getCathedralMultiplier(string)":"6f7c48f6","getSentinelCathedral(string)":"ce4cda74","name()":"06fdde03","owner()":"8da5cb5b","previewReward(string,uint256)":"37afc049","renounceOwnership()":"715018a6","sentinelCathedrals(string)":"faa3022d","setAttester(address,bool)":"5c0204d9","symbol()":"95d89b41","totalAttestations()":"60485742","totalSupply()":"18160ddd","transfer(address,uint256)":"a9059cbb","transferFrom(address,address,uint256)":"23b872dd","transferOwnership(address)":"f2fde38b","updateCycle(string)":"2b799703"}}}}}